{"contracts/NitroLegacyInventory.sol":{"NitroLegacyInventory":{"abi":[{"inputs":[],"stateMutability":"nonpayable","type":"constructor"},{"anonymous":false,"inputs":[{"indexed":true,"internalType":"uint256","name":"itemId","type":"uint256"},{"indexed":false,"internalType":"string","name":"name","type":"string"},{"indexed":false,"internalType":"uint8","name":"ownerCode","type":"uint8"},{"indexed":false,"internalType":"enum NitroLegacyInventory.Rarity","name":"rarity","type":"uint8"}],"name":"ItemCreated","type":"event"},{"anonymous":false,"inputs":[{"indexed":true,"internalType":"uint256","name":"itemId","type":"uint256"},{"indexed":false,"internalType":"string","name":"name","type":"string"},{"indexed":false,"internalType":"uint8","name":"ownerCode","type":"uint8"},{"indexed":false,"internalType":"enum NitroLegacyInventory.Rarity","name":"rarity","type":"uint8"},{"indexed":false,"internalType":"bool","name":"active","type":"bool"}],"name":"ItemUpdated","type":"event"},{"anonymous":false,"inputs":[{"indexed":true,"internalType":"address","name":"previousOwner","type":"address"},{"indexed":true,"internalType":"address","name":"newOwner","type":"address"}],"name":"OwnershipTransferred","type":"event"},{"anonymous":false,"inputs":[{"indexed":true,"internalType":"enum NitroLegacyInventory.ClassId","name":"classId","type":"uint8"},{"indexed":true,"internalType":"uint8","name":"slot","type":"uint8"}],"name":"SlotCleared","type":"event"},{"anonymous":false,"inputs":[{"indexed":true,"internalType":"enum NitroLegacyInventory.ClassId","name":"classId","type":"uint8"},{"indexed":true,"internalType":"uint8","name":"slot","type":"uint8"},{"indexed":false,"internalType":"uint256","name":"itemId","type":"uint256"}],"name":"SlotSet","type":"event"},{"inputs":[{"internalType":"enum NitroLegacyInventory.ClassId","name":"classId","type":"uint8"},{"internalType":"uint8","name":"slot","type":"uint8"}],"name":"clearInventorySlot","outputs":[],"stateMutability":"nonpayable","type":"function"},{"inputs":[{"internalType":"string","name":"name_","type":"string"},{"internalType":"string","name":"icon_","type":"string"},{"internalType":"string","name":"description_","type":"string"},{"internalType":"enum NitroLegacyInventory.Rarity","name":"rarity_","type":"uint8"},{"internalType":"uint8","name":"ownerCode_","type":"uint8"}],"name":"createItem","outputs":[{"internalType":"uint256","name":"itemId","type":"uint256"}],"stateMutability":"nonpayable","type":"function"},{"inputs":[{"internalType":"enum NitroLegacyInventory.ClassId","name":"classId","type":"uint8"}],"name":"getClassSlots","outputs":[{"internalType":"uint8[]","name":"","type":"uint8[]"}],"stateMutability":"view","type":"function"},{"inputs":[{"internalType":"enum NitroLegacyInventory.ClassId","name":"classId","type":"uint8"}],"name":"getInventory","outputs":[{"components":[{"internalType":"uint8","name":"slot","type":"uint8"},{"internalType":"uint256","name":"itemId","type":"uint256"},{"internalType":"bool","name":"hasItem","type":"bool"}],"internalType":"struct NitroLegacyInventory.InventorySlot[]","name":"slots","type":"tuple[]"}],"stateMutability":"view","type":"function"},{"inputs":[{"internalType":"uint256","name":"itemId","type":"uint256"}],"name":"getItem","outputs":[{"components":[{"internalType":"uint256","name":"id","type":"uint256"},{"internalType":"string","name":"name","type":"string"},{"internalType":"string","name":"icon","type":"string"},{"internalType":"string","name":"description","type":"string"},{"internalType":"enum NitroLegacyInventory.Rarity","name":"rarity","type":"uint8"},{"internalType":"uint8","name":"ownerCode","type":"uint8"},{"internalType":"bool","name":"active","type":"bool"}],"internalType":"struct NitroLegacyInventory.Item","name":"","type":"tuple"}],"stateMutability":"view","type":"function"},{"inputs":[],"name":"listItems","outputs":[{"components":[{"internalType":"uint256","name":"id","type":"uint256"},{"internalType":"string","name":"name","type":"string"},{"internalType":"string","name":"icon","type":"string"},{"internalType":"string","name":"description","type":"string"},{"internalType":"enum NitroLegacyInventory.Rarity","name":"rarity","type":"uint8"},{"internalType":"uint8","name":"ownerCode","type":"uint8"},{"internalType":"bool","name":"active","type":"bool"}],"internalType":"struct NitroLegacyInventory.Item[]","name":"items","type":"tuple[]"}],"stateMutability":"view","type":"function"},{"inputs":[],"name":"owner","outputs":[{"internalType":"address","name":"","type":"address"}],"stateMutability":"view","type":"function"},{"inputs":[{"internalType":"enum NitroLegacyInventory.ClassId","name":"classId","type":"uint8"},{"internalType":"uint8","name":"slot","type":"uint8"},{"internalType":"uint256","name":"itemId","type":"uint256"}],"name":"setInventorySlot","outputs":[],"stateMutability":"nonpayable","type":"function"},{"inputs":[{"internalType":"enum NitroLegacyInventory.ClassId","name":"classId","type":"uint8"},{"internalType":"uint8","name":"slot","type":"uint8"}],"name":"slotItemId","outputs":[{"internalType":"uint256","name":"","type":"uint256"}],"stateMutability":"view","type":"function"},{"inputs":[{"internalType":"address","name":"newOwner","type":"address"}],"name":"transferOwnership","outputs":[],"stateMutability":"nonpayable","type":"function"},{"inputs":[{"internalType":"uint256","name":"itemId","type":"uint256"},{"internalType":"string","name":"name_","type":"string"},{"internalType":"string","name":"icon_","type":"string"},{"internalType":"string","name":"description_","type":"string"},{"internalType":"enum NitroLegacyInventory.Rarity","name":"rarity_","type":"uint8"},{"internalType":"uint8","name":"ownerCode_","type":"uint8"},{"internalType":"bool","name":"active_","type":"bool"}],"name":"updateItem","outputs":[],"stateMutability":"nonpayable","type":"function"}],"evm":{"bytecode":{"linkReferences":{},"object":"60806040526001805534801561001457600080fd5b50600080546001600160a01b0319163390811782556040519091907f8be0079c531659141344cd1fd0a4f28419497f9722a3daafe3b4186f6b6457e0908290a3611d01806100636000396000f3fe608060405234801561001057600080fd5b50600436106100a95760003560e01c806385a168881161007157806385a16888146101315780638da5cb5b14610151578063e2a680f31461016c578063f2fde38b1461017f578063f63c518414610192578063fa9adb77146101a557600080fd5b8063012eec4a146100ae5780633129e773146100d4578063355eefc8146100f45780634390382114610109578063472698371461011e575b600080fd5b6100c16100bc366004611561565b6101c5565b6040519081526020015b60405180910390f35b6100e76100e2366004611596565b6102a4565b6040516100cb91906116b8565b6100fc61050c565b6040516100cb91906116d2565b61011c610117366004611561565b6107ef565b005b61011c61012c366004611736565b610927565b61014461013f366004611774565b610e37565b6040516100cb9190611791565b6000546040516001600160a01b0390911681526020016100cb565b6100c161017a366004611838565b610fee565b61011c61018d3660046118f4565b6111c8565b61011c6101a036600461191d565b611293565b6101b86101b3366004611774565b611442565b6040516100cb91906119fc565b6000600560008460038111156101dd576101dd6115f5565b60038111156101ee576101ee6115f5565b81526020808201929092526040908101600090812060ff8087168352935220541661024f5760405162461bcd60e51b815260206004820152600c60248201526b29b637ba103ab735b737bbb760a11b60448201526064015b60405180910390fd5b60046000846003811115610265576102656115f5565b6003811115610276576102766115f5565b815260200190815260200160002060008360ff1660ff16815260200190815260200160002054905092915050565b6102ac6114ed565b6000600260008481526020019081526020016000206040518060e0016040529081600082015481526020016001820180546102e690611a43565b80601f016020809104026020016040519081016040528092919081815260200182805461031290611a43565b801561035f5780601f106103345761010080835404028352916020019161035f565b820191906000526020600020905b81548152906001019060200180831161034257829003601f168201915b5050505050815260200160028201805461037890611a43565b80601f01602080910402602001604051908101604052809291908181526020018280546103a490611a43565b80156103f15780601f106103c6576101008083540402835291602001916103f1565b820191906000526020600020905b8154815290600101906020018083116103d457829003601f168201915b5050505050815260200160038201805461040a90611a43565b80601f016020809104026020016040519081016040528092919081815260200182805461043690611a43565b80156104835780601f1061045857610100808354040283529160200191610483565b820191906000526020600020905b81548152906001019060200180831161046657829003601f168201915b5050509183525050600482015460209091019060ff1660038111156104aa576104aa6115f5565b60038111156104bb576104bb6115f5565b81526004919091015460ff6101008204811660208401526201000090910416151560409091015280519091506000036105065760405162461bcd60e51b815260040161024690611a7d565b92915050565b6003546060908067ffffffffffffffff81111561052b5761052b611aa3565b60405190808252806020026020018201604052801561056457816020015b6105516114ed565b8152602001906001900390816105495790505b50915060005b818110156107ea57600260006003838154811061058957610589611ab9565b906000526020600020015481526020019081526020016000206040518060e0016040529081600082015481526020016001820180546105c790611a43565b80601f01602080910402602001604051908101604052809291908181526020018280546105f390611a43565b80156106405780601f1061061557610100808354040283529160200191610640565b820191906000526020600020905b81548152906001019060200180831161062357829003601f168201915b5050505050815260200160028201805461065990611a43565b80601f016020809104026020016040519081016040528092919081815260200182805461068590611a43565b80156106d25780601f106106a7576101008083540402835291602001916106d2565b820191906000526020600020905b8154815290600101906020018083116106b557829003601f168201915b505050505081526020016003820180546106eb90611a43565b80601f016020809104026020016040519081016040528092919081815260200182805461071790611a43565b80156107645780601f1061073957610100808354040283529160200191610764565b820191906000526020600020905b81548152906001019060200180831161074757829003601f168201915b5050509183525050600482015460209091019060ff16600381111561078b5761078b6115f5565b600381111561079c5761079c6115f5565b81526004919091015460ff6101008204811660208401526201000090910416151560409091015283518490839081106107d7576107d7611ab9565b602090810291909101015260010161056a565b505090565b6000546001600160a01b031633146108195760405162461bcd60e51b815260040161024690611acf565b6005600083600381111561082f5761082f6115f5565b6003811115610840576108406115f5565b81526020808201929092526040908101600090812060ff8086168352935220541661089c5760405162461bcd60e51b815260206004820152600c60248201526b29b637ba103ab735b737bbb760a11b6044820152606401610246565b6000600460008460038111156108b4576108b46115f5565b60038111156108c5576108c56115f5565b81526020808201929092526040908101600090812060ff8616808352935220919091558260038111156108fa576108fa6115f5565b6040517fc5a151c56dc45398d3f39b4711f3ac50496d10e569c714a5f3dd90274f19c70f90600090a35050565b6000546001600160a01b031633146109515760405162461bcd60e51b815260040161024690611acf565b60008260ff16116109975760405162461bcd60e51b815260206004820152601060248201526f0536c6f74206d757374206265203e20360841b6044820152606401610246565b8015610c3a576000600260008381526020019081526020016000206040518060e0016040529081600082015481526020016001820180546109d790611a43565b80601f0160208091040260200160405190810160405280929190818152602001828054610a0390611a43565b8015610a505780601f10610a2557610100808354040283529160200191610a50565b820191906000526020600020905b815481529060010190602001808311610a3357829003601f168201915b50505050508152602001600282018054610a6990611a43565b80601f0160208091040260200160405190810160405280929190818152602001828054610a9590611a43565b8015610ae25780601f10610ab757610100808354040283529160200191610ae2565b820191906000526020600020905b815481529060010190602001808311610ac557829003601f168201915b50505050508152602001600382018054610afb90611a43565b80601f0160208091040260200160405190810160405280929190818152602001828054610b2790611a43565b8015610b745780601f10610b4957610100808354040283529160200191610b74565b820191906000526020600020905b815481529060010190602001808311610b5757829003601f168201915b5050509183525050600482015460209091019060ff166003811115610b9b57610b9b6115f5565b6003811115610bac57610bac6115f5565b81526004919091015460ff610100820481166020840152620100009091041615156040909101528051909150600003610bf75760405162461bcd60e51b815260040161024690611a7d565b8060c00151610c385760405162461bcd60e51b815260206004820152600d60248201526c4974656d20696e61637469766560981b6044820152606401610246565b505b60056000846003811115610c5057610c506115f5565b6003811115610c6157610c616115f5565b81526020808201929092526040908101600090812060ff80871683529352205416610d4b57600160056000856003811115610c9e57610c9e6115f5565b6003811115610caf57610caf6115f5565b81526020808201929092526040908101600090812060ff871682529092528120805460ff191692151592909217909155600690846003811115610cf457610cf46115f5565b6003811115610d0557610d056115f5565b81526020808201929092526040016000908120805460018101825590825290829020918104909101805460ff808616601f9094166101000a938402930219169190911790555b8060046000856003811115610d6257610d626115f5565b6003811115610d7357610d736115f5565b815260200190815260200160002060008460ff1660ff1681526020019081526020016000208190555080600003610de8578160ff16836003811115610dba57610dba6115f5565b6040517fc5a151c56dc45398d3f39b4711f3ac50496d10e569c714a5f3dd90274f19c70f90600090a3505050565b8160ff16836003811115610dfe57610dfe6115f5565b6040518381527f8548afce0d13a170aec713f0f7c03449cc48a2a9de7a75f26b3d5ae070e782759060200160405180910390a35b505050565b6060600060066000846003811115610e5157610e516115f5565b6003811115610e6257610e626115f5565b815260208101919091526040016000205490508067ffffffffffffffff811115610e8e57610e8e611aa3565b604051908082528060200260200182016040528015610ed957816020015b6040805160608101825260008082526020808301829052928201528252600019909201910181610eac5790505b50915060005b81811015610fe757600060066000866003811115610eff57610eff6115f5565b6003811115610f1057610f106115f5565b81526020019081526020016000208281548110610f2f57610f2f611ab9565b60009182526020808320908204015460ff601f9092166101000a9004169150600481876003811115610f6357610f636115f5565b6003811115610f7457610f746115f5565b815260200190815260200160002060008360ff1660ff16815260200190815260200160002054905060405180606001604052808360ff16815260200182815260200182600014151515815250858481518110610fd257610fd2611ab9565b60209081029190910101525050600101610edf565b5050919050565b600080546001600160a01b031633146110195760405162461bcd60e51b815260040161024690611acf565b876110565760405162461bcd60e51b815260206004820152600d60248201526c13985b59481c995c5d5a5c9959609a1b6044820152606401610246565b60048260ff1611156110a45760405162461bcd60e51b81526020600482015260176024820152764f776e657220636f6465206f7574206f662072616e676560481b6044820152606401610246565b600180549060006110b483611af7565b909155506000818152600260205260409020818155909150600181016110db8a8c83611b6e565b50600281016110eb888a83611b6e565b50600381016110fb868883611b6e565b5060048101805485919060ff1916600183600381111561111d5761111d6115f5565b021790555060048101805462ff00001960ff8616610100021662ffff00199091161762010000179055600380546001810182556000919091527fc2575a0e9e593c00f959f8c92f12db2869c3395a3b0502d05e2516446f71f85b0182905560405182907f03a6881626db625e5751d54dde3ffcc9d651abf0387516d79774e0128690d841906111b3908d908d9088908a90611c58565b60405180910390a25098975050505050505050565b6000546001600160a01b031633146111f25760405162461bcd60e51b815260040161024690611acf565b6001600160a01b0381166112385760405162461bcd60e51b815260206004820152600d60248201526c24b73b30b634b21037bbb732b960991b6044820152606401610246565b600080546040516001600160a01b03808516939216917f8be0079c531659141344cd1fd0a4f28419497f9722a3daafe3b4186f6b6457e091a3600080546001600160a01b0319166001600160a01b0392909216919091179055565b6000546001600160a01b031633146112bd5760405162461bcd60e51b815260040161024690611acf565b60008a815260026020526040812080549091036112ec5760405162461bcd60e51b815260040161024690611a7d565b886113295760405162461bcd60e51b815260206004820152600d60248201526c13985b59481c995c5d5a5c9959609a1b6044820152606401610246565b60048360ff1611156113775760405162461bcd60e51b81526020600482015260176024820152764f776e657220636f6465206f7574206f662072616e676560481b6044820152606401610246565b600181016113868a8c83611b6e565b5060028101611396888a83611b6e565b50600381016113a6868883611b6e565b5060048101805485919060ff191660018360038111156113c8576113c86115f5565b021790555060048101805462ffff00191661010060ff86160262ff000019161762010000841515021790556040518b907fcf3ab8693137347164e1a6ba955cf5bee5ffe2f26a04fb8b37533fd740ce0a989061142d908d908d9088908a908990611c8d565b60405180910390a25050505050505050505050565b60606006600083600381111561145a5761145a6115f5565b600381111561146b5761146b6115f5565b81526020019081526020016000208054806020026020016040519081016040528092919081815260200182805480156114e157602002820191906000526020600020906000905b825461010083900a900460ff168152602060019283018181049485019490930390920291018084116114b25790505b50505050509050919050565b6040518060e001604052806000815260200160608152602001606081526020016060815260200160006003811115611527576115276115f5565b815260006020820181905260409091015290565b6004811061154857600080fd5b50565b803560ff8116811461155c57600080fd5b919050565b6000806040838503121561157457600080fd5b823561157f8161153b565b915061158d6020840161154b565b90509250929050565b6000602082840312156115a857600080fd5b5035919050565b6000815180845260005b818110156115d5576020818501810151868301820152016115b9565b506000602082860101526020601f19601f83011685010191505092915050565b634e487b7160e01b600052602160045260246000fd5b6004811061162957634e487b7160e01b600052602160045260246000fd5b9052565b805182526000602082015160e0602085015261164c60e08501826115af565b90506040830151848203604086015261166582826115af565b9150506060830151848203606086015261167f82826115af565b9150506080830151611694608086018261160b565b5060ff60a08401511660a085015260c0830151151560c08501528091505092915050565b6020815260006116cb602083018461162d565b9392505050565b600060208083016020845280855180835260408601915060408160051b87010192506020870160005b8281101561172957603f1988860301845261171785835161162d565b945092850192908501906001016116fb565b5092979650505050505050565b60008060006060848603121561174b57600080fd5b83356117568161153b565b92506117646020850161154b565b9150604084013590509250925092565b60006020828403121561178657600080fd5b81356116cb8161153b565b602080825282518282018190526000919060409081850190868401855b828110156117e2578151805160ff1685528681015187860152850151151585850152606090930192908501906001016117ae565b5091979650505050505050565b60008083601f84011261180157600080fd5b50813567ffffffffffffffff81111561181957600080fd5b60208301915083602082850101111561183157600080fd5b9250929050565b60008060008060008060008060a0898b03121561185457600080fd5b883567ffffffffffffffff8082111561186c57600080fd5b6118788c838d016117ef565b909a50985060208b013591508082111561189157600080fd5b61189d8c838d016117ef565b909850965060408b01359150808211156118b657600080fd5b506118c38b828c016117ef565b90955093505060608901356118d78161153b565b91506118e560808a0161154b565b90509295985092959890939650565b60006020828403121561190657600080fd5b81356001600160a01b03811681146116cb57600080fd5b60008060008060008060008060008060e08b8d03121561193c57600080fd5b8a35995060208b013567ffffffffffffffff8082111561195b57600080fd5b6119678e838f016117ef565b909b50995060408d013591508082111561198057600080fd5b61198c8e838f016117ef565b909950975060608d01359150808211156119a557600080fd5b506119b28d828e016117ef565b90965094505060808b01356119c68161153b565b92506119d460a08c0161154b565b915060c08b013580151581146119e957600080fd5b809150509295989b9194979a5092959850565b6020808252825182820181905260009190848201906040850190845b81811015611a3757835160ff1683529284019291840191600101611a18565b50909695505050505050565b600181811c90821680611a5757607f821691505b602082108103611a7757634e487b7160e01b600052602260045260246000fd5b50919050565b6020808252600c908201526b556e6b6e6f776e206974656d60a01b604082015260600190565b634e487b7160e01b600052604160045260246000fd5b634e487b7160e01b600052603260045260246000fd5b6020808252600e908201526d139bdd08185d5d1a1bdc9a5e995960921b604082015260600190565b600060018201611b1757634e487b7160e01b600052601160045260246000fd5b5060010190565b601f821115610e32576000816000526020600020601f850160051c81016020861015611b475750805b601f850160051c820191505b81811015611b6657828155600101611b53565b505050505050565b67ffffffffffffffff831115611b8657611b86611aa3565b611b9a83611b948354611a43565b83611b1e565b6000601f841160018114611bce5760008515611bb65750838201355b600019600387901b1c1916600186901b178355611c28565b600083815260209020601f19861690835b82811015611bff5786850135825560209485019460019092019101611bdf565b5086821015611c1c5760001960f88860031b161c19848701351681555b505060018560011b0183555b5050505050565b81835281816020850137506000828201602090810191909152601f909101601f19169091010190565b606081526000611c6c606083018688611c2f565b905060ff84166020830152611c84604083018461160b565b95945050505050565b608081526000611ca1608083018789611c2f565b905060ff85166020830152611cb9604083018561160b565b8215156060830152969550505050505056fea26469706673582212201525f4046e7eeb007eebb019f7cbfb3c8d70c4fbf8b00099a29c118c733b5ef564736f6c63430008180033","opcodes":"PUSH1 0x80 PUSH1 0x40 MSTORE PUSH1 0x1 DUP1 SSTORE CALLVALUE DUP1 ISZERO PUSH2 0x14 JUMPI PUSH1 0x0 DUP1 REVERT JUMPDEST POP PUSH1 0x0 DUP1 SLOAD PUSH1 0x1 PUSH1 0x1 PUSH1 0xA0 SHL SUB NOT AND CALLER SWAP1 DUP2 OR DUP3 SSTORE PUSH1 0x40 MLOAD SWAP1 SWAP2 SWAP1 PUSH32 0x8BE0079C531659141344CD1FD0A4F28419497F9722A3DAAFE3B4186F6B6457E0 SWAP1 DUP3 SWAP1 LOG3 PUSH2 0x1D01 DUP1 PUSH2 0x63 PUSH1 0x0 CODECOPY PUSH1 0x0 RETURN INVALID PUSH1 0x80 PUSH1 0x40 MSTORE CALLVALUE DUP1 ISZERO PUSH2 0x10 JUMPI PUSH1 0x0 DUP1 REVERT JUMPDEST POP PUSH1 0x4 CALLDATASIZE LT PUSH2 0xA9 JUMPI PUSH1 0x0 CALLDATALOAD PUSH1 0xE0 SHR DUP1 PUSH4 0x85A16888 GT PUSH2 0x71 JUMPI DUP1 PUSH4 0x85A16888 EQ PUSH2 0x131 JUMPI DUP1 PUSH4 0x8DA5CB5B EQ PUSH2 0x151 JUMPI DUP1 PUSH4 0xE2A680F3 EQ PUSH2 0x16C JUMPI DUP1 PUSH4 0xF2FDE38B EQ PUSH2 0x17F JUMPI DUP1 PUSH4 0xF63C5184 EQ PUSH2 0x192 JUMPI DUP1 PUSH4 0xFA9ADB77 EQ PUSH2 0x1A5 JUMPI PUSH1 0x0 DUP1 REVERT JUMPDEST DUP1 PUSH4 0x12EEC4A EQ PUSH2 0xAE JUMPI DUP1 PUSH4 0x3129E773 EQ PUSH2 0xD4 JUMPI DUP1 PUSH4 0x355EEFC8 EQ PUSH2 0xF4 JUMPI DUP1 PUSH4 0x43903821 EQ PUSH2 0x109 JUMPI DUP1 PUSH4 0x47269837 EQ PUSH2 0x11E JUMPI JUMPDEST PUSH1 0x0 DUP1 REVERT JUMPDEST PUSH2 0xC1 PUSH2 0xBC CALLDATASIZE PUSH1 0x4 PUSH2 0x1561 JUMP JUMPDEST PUSH2 0x1C5 JUMP JUMPDEST PUSH1 0x40 MLOAD SWAP1 DUP2 MSTORE PUSH1 0x20 ADD JUMPDEST PUSH1 0x40 MLOAD DUP1 SWAP2 SUB SWAP1 RETURN JUMPDEST PUSH2 0xE7 PUSH2 0xE2 CALLDATASIZE PUSH1 0x4 PUSH2 0x1596 JUMP JUMPDEST PUSH2 0x2A4 JUMP JUMPDEST PUSH1 0x40 MLOAD PUSH2 0xCB SWAP2 SWAP1 PUSH2 0x16B8 JUMP JUMPDEST PUSH2 0xFC PUSH2 0x50C JUMP JUMPDEST PUSH1 0x40 MLOAD PUSH2 0xCB SWAP2 SWAP1 PUSH2 0x16D2 JUMP JUMPDEST PUSH2 0x11C PUSH2 0x117 CALLDATASIZE PUSH1 0x4 PUSH2 0x1561 JUMP JUMPDEST PUSH2 0x7EF JUMP JUMPDEST STOP JUMPDEST PUSH2 0x11C PUSH2 0x12C CALLDATASIZE PUSH1 0x4 PUSH2 0x1736 JUMP JUMPDEST PUSH2 0x927 JUMP JUMPDEST PUSH2 0x144 PUSH2 0x13F CALLDATASIZE PUSH1 0x4 PUSH2 0x1774 JUMP JUMPDEST PUSH2 0xE37 JUMP JUMPDEST PUSH1 0x40 MLOAD PUSH2 0xCB SWAP2 SWAP1 PUSH2 0x1791 JUMP JUMPDEST PUSH1 0x0 SLOAD PUSH1 0x40 MLOAD PUSH1 0x1 PUSH1 0x1 PUSH1 0xA0 SHL SUB SWAP1 SWAP2 AND DUP2 MSTORE PUSH1 0x20 ADD PUSH2 0xCB JUMP JUMPDEST PUSH2 0xC1 PUSH2 0x17A CALLDATASIZE PUSH1 0x4 PUSH2 0x1838 JUMP JUMPDEST PUSH2 0xFEE JUMP JUMPDEST PUSH2 0x11C PUSH2 0x18D CALLDATASIZE PUSH1 0x4 PUSH2 0x18F4 JUMP JUMPDEST PUSH2 0x11C8 JUMP JUMPDEST PUSH2 0x11C PUSH2 0x1A0 CALLDATASIZE PUSH1 0x4 PUSH2 0x191D JUMP JUMPDEST PUSH2 0x1293 JUMP JUMPDEST PUSH2 0x1B8 PUSH2 0x1B3 CALLDATASIZE PUSH1 0x4 PUSH2 0x1774 JUMP JUMPDEST PUSH2 0x1442 JUMP JUMPDEST PUSH1 0x40 MLOAD PUSH2 0xCB SWAP2 SWAP1 PUSH2 0x19FC JUMP JUMPDEST PUSH1 0x0 PUSH1 0x5 PUSH1 0x0 DUP5 PUSH1 0x3 DUP2 GT ISZERO PUSH2 0x1DD JUMPI PUSH2 0x1DD PUSH2 0x15F5 JUMP JUMPDEST PUSH1 0x3 DUP2 GT ISZERO PUSH2 0x1EE JUMPI PUSH2 0x1EE PUSH2 0x15F5 JUMP JUMPDEST DUP2 MSTORE PUSH1 0x20 DUP1 DUP3 ADD SWAP3 SWAP1 SWAP3 MSTORE PUSH1 0x40 SWAP1 DUP2 ADD PUSH1 0x0 SWAP1 DUP2 KECCAK256 PUSH1 0xFF DUP1 DUP8 AND DUP4 MSTORE SWAP4 MSTORE KECCAK256 SLOAD AND PUSH2 0x24F JUMPI PUSH1 0x40 MLOAD PUSH3 0x461BCD PUSH1 0xE5 SHL DUP2 MSTORE PUSH1 0x20 PUSH1 0x4 DUP3 ADD MSTORE PUSH1 0xC PUSH1 0x24 DUP3 ADD MSTORE PUSH12 0x29B637BA103AB735B737BBB7 PUSH1 0xA1 SHL PUSH1 0x44 DUP3 ADD MSTORE PUSH1 0x64 ADD JUMPDEST PUSH1 0x40 MLOAD DUP1 SWAP2 SUB SWAP1 REVERT JUMPDEST PUSH1 0x4 PUSH1 0x0 DUP5 PUSH1 0x3 DUP2 GT ISZERO PUSH2 0x265 JUMPI PUSH2 0x265 PUSH2 0x15F5 JUMP JUMPDEST PUSH1 0x3 DUP2 GT ISZERO PUSH2 0x276 JUMPI PUSH2 0x276 PUSH2 0x15F5 JUMP JUMPDEST DUP2 MSTORE PUSH1 0x20 ADD SWAP1 DUP2 MSTORE PUSH1 0x20 ADD PUSH1 0x0 KECCAK256 PUSH1 0x0 DUP4 PUSH1 0xFF AND PUSH1 0xFF AND DUP2 MSTORE PUSH1 0x20 ADD SWAP1 DUP2 MSTORE PUSH1 0x20 ADD PUSH1 0x0 KECCAK256 SLOAD SWAP1 POP SWAP3 SWAP2 POP POP JUMP JUMPDEST PUSH2 0x2AC PUSH2 0x14ED JUMP JUMPDEST PUSH1 0x0 PUSH1 0x2 PUSH1 0x0 DUP5 DUP2 MSTORE PUSH1 0x20 ADD SWAP1 DUP2 MSTORE PUSH1 0x20 ADD PUSH1 0x0 KECCAK256 PUSH1 0x40 MLOAD DUP1 PUSH1 0xE0 ADD PUSH1 0x40 MSTORE SWAP1 DUP2 PUSH1 0x0 DUP3 ADD SLOAD DUP2 MSTORE PUSH1 0x20 ADD PUSH1 0x1 DUP3 ADD DUP1 SLOAD PUSH2 0x2E6 SWAP1 PUSH2 0x1A43 JUMP JUMPDEST DUP1 PUSH1 0x1F ADD PUSH1 0x20 DUP1 SWAP2 DIV MUL PUSH1 0x20 ADD PUSH1 0x40 MLOAD SWAP1 DUP2 ADD PUSH1 0x40 MSTORE DUP1 SWAP3 SWAP2 SWAP1 DUP2 DUP2 MSTORE PUSH1 0x20 ADD DUP3 DUP1 SLOAD PUSH2 0x312 SWAP1 PUSH2 0x1A43 JUMP JUMPDEST DUP1 ISZERO PUSH2 0x35F JUMPI DUP1 PUSH1 0x1F LT PUSH2 0x334 JUMPI PUSH2 0x100 DUP1 DUP4 SLOAD DIV MUL DUP4 MSTORE SWAP2 PUSH1 0x20 ADD SWAP2 PUSH2 0x35F JUMP JUMPDEST DUP3 ADD SWAP2 SWAP1 PUSH1 0x0 MSTORE PUSH1 0x20 PUSH1 0x0 KECCAK256 SWAP1 JUMPDEST DUP2 SLOAD DUP2 MSTORE SWAP1 PUSH1 0x1 ADD SWAP1 PUSH1 0x20 ADD DUP1 DUP4 GT PUSH2 0x342 JUMPI DUP3 SWAP1 SUB PUSH1 0x1F AND DUP3 ADD SWAP2 JUMPDEST POP POP POP POP POP DUP2 MSTORE PUSH1 0x20 ADD PUSH1 0x2 DUP3 ADD DUP1 SLOAD PUSH2 0x378 SWAP1 PUSH2 0x1A43 JUMP JUMPDEST DUP1 PUSH1 0x1F ADD PUSH1 0x20 DUP1 SWAP2 DIV MUL PUSH1 0x20 ADD PUSH1 0x40 MLOAD SWAP1 DUP2 ADD PUSH1 0x40 MSTORE DUP1 SWAP3 SWAP2 SWAP1 DUP2 DUP2 MSTORE PUSH1 0x20 ADD DUP3 DUP1 SLOAD PUSH2 0x3A4 SWAP1 PUSH2 0x1A43 JUMP JUMPDEST DUP1 ISZERO PUSH2 0x3F1 JUMPI DUP1 PUSH1 0x1F LT PUSH2 0x3C6 JUMPI PUSH2 0x100 DUP1 DUP4 SLOAD DIV MUL DUP4 MSTORE SWAP2 PUSH1 0x20 ADD SWAP2 PUSH2 0x3F1 JUMP JUMPDEST DUP3 ADD SWAP2 SWAP1 PUSH1 0x0 MSTORE PUSH1 0x20 PUSH1 0x0 KECCAK256 SWAP1 JUMPDEST DUP2 SLOAD DUP2 MSTORE SWAP1 PUSH1 0x1 ADD SWAP1 PUSH1 0x20 ADD DUP1 DUP4 GT PUSH2 0x3D4 JUMPI DUP3 SWAP1 SUB PUSH1 0x1F AND DUP3 ADD SWAP2 JUMPDEST POP POP POP POP POP DUP2 MSTORE PUSH1 0x20 ADD PUSH1 0x3 DUP3 ADD DUP1 SLOAD PUSH2 0x40A SWAP1 PUSH2 0x1A43 JUMP JUMPDEST DUP1 PUSH1 0x1F ADD PUSH1 0x20 DUP1 SWAP2 DIV MUL PUSH1 0x20 ADD PUSH1 0x40 MLOAD SWAP1 DUP2 ADD PUSH1 0x40 MSTORE DUP1 SWAP3 SWAP2 SWAP1 DUP2 DUP2 MSTORE PUSH1 0x20 ADD DUP3 DUP1 SLOAD PUSH2 0x436 SWAP1 PUSH2 0x1A43 JUMP JUMPDEST DUP1 ISZERO PUSH2 0x483 JUMPI DUP1 PUSH1 0x1F LT PUSH2 0x458 JUMPI PUSH2 0x100 DUP1 DUP4 SLOAD DIV MUL DUP4 MSTORE SWAP2 PUSH1 0x20 ADD SWAP2 PUSH2 0x483 JUMP JUMPDEST DUP3 ADD SWAP2 SWAP1 PUSH1 0x0 MSTORE PUSH1 0x20 PUSH1 0x0 KECCAK256 SWAP1 JUMPDEST DUP2 SLOAD DUP2 MSTORE SWAP1 PUSH1 0x1 ADD SWAP1 PUSH1 0x20 ADD DUP1 DUP4 GT PUSH2 0x466 JUMPI DUP3 SWAP1 SUB PUSH1 0x1F AND DUP3 ADD SWAP2 JUMPDEST POP POP POP SWAP2 DUP4 MSTORE POP POP PUSH1 0x4 DUP3 ADD SLOAD PUSH1 0x20 SWAP1 SWAP2 ADD SWAP1 PUSH1 0xFF AND PUSH1 0x3 DUP2 GT ISZERO PUSH2 0x4AA JUMPI PUSH2 0x4AA PUSH2 0x15F5 JUMP JUMPDEST PUSH1 0x3 DUP2 GT ISZERO PUSH2 0x4BB JUMPI PUSH2 0x4BB PUSH2 0x15F5 JUMP JUMPDEST DUP2 MSTORE PUSH1 0x4 SWAP2 SWAP1 SWAP2 ADD SLOAD PUSH1 0xFF PUSH2 0x100 DUP3 DIV DUP2 AND PUSH1 0x20 DUP5 ADD MSTORE PUSH3 0x10000 SWAP1 SWAP2 DIV AND ISZERO ISZERO PUSH1 0x40 SWAP1 SWAP2 ADD MSTORE DUP1 MLOAD SWAP1 SWAP2 POP PUSH1 0x0 SUB PUSH2 0x506 JUMPI PUSH1 0x40 MLOAD PUSH3 0x461BCD PUSH1 0xE5 SHL DUP2 MSTORE PUSH1 0x4 ADD PUSH2 0x246 SWAP1 PUSH2 0x1A7D JUMP JUMPDEST SWAP3 SWAP2 POP POP JUMP JUMPDEST PUSH1 0x3 SLOAD PUSH1 0x60 SWAP1 DUP1 PUSH8 0xFFFFFFFFFFFFFFFF DUP2 GT ISZERO PUSH2 0x52B JUMPI PUSH2 0x52B PUSH2 0x1AA3 JUMP JUMPDEST PUSH1 0x40 MLOAD SWAP1 DUP1 DUP3 MSTORE DUP1 PUSH1 0x20 MUL PUSH1 0x20 ADD DUP3 ADD PUSH1 0x40 MSTORE DUP1 ISZERO PUSH2 0x564 JUMPI DUP2 PUSH1 0x20 ADD JUMPDEST PUSH2 0x551 PUSH2 0x14ED JUMP JUMPDEST DUP2 MSTORE PUSH1 0x20 ADD SWAP1 PUSH1 0x1 SWAP1 SUB SWAP1 DUP2 PUSH2 0x549 JUMPI SWAP1 POP JUMPDEST POP SWAP2 POP PUSH1 0x0 JUMPDEST DUP2 DUP2 LT ISZERO PUSH2 0x7EA JUMPI PUSH1 0x2 PUSH1 0x0 PUSH1 0x3 DUP4 DUP2 SLOAD DUP2 LT PUSH2 0x589 JUMPI PUSH2 0x589 PUSH2 0x1AB9 JUMP JUMPDEST SWAP1 PUSH1 0x0 MSTORE PUSH1 0x20 PUSH1 0x0 KECCAK256 ADD SLOAD DUP2 MSTORE PUSH1 0x20 ADD SWAP1 DUP2 MSTORE PUSH1 0x20 ADD PUSH1 0x0 KECCAK256 PUSH1 0x40 MLOAD DUP1 PUSH1 0xE0 ADD PUSH1 0x40 MSTORE SWAP1 DUP2 PUSH1 0x0 DUP3 ADD SLOAD DUP2 MSTORE PUSH1 0x20 ADD PUSH1 0x1 DUP3 ADD DUP1 SLOAD PUSH2 0x5C7 SWAP1 PUSH2 0x1A43 JUMP JUMPDEST DUP1 PUSH1 0x1F ADD PUSH1 0x20 DUP1 SWAP2 DIV MUL PUSH1 0x20 ADD PUSH1 0x40 MLOAD SWAP1 DUP2 ADD PUSH1 0x40 MSTORE DUP1 SWAP3 SWAP2 SWAP1 DUP2 DUP2 MSTORE PUSH1 0x20 ADD DUP3 DUP1 SLOAD PUSH2 0x5F3 SWAP1 PUSH2 0x1A43 JUMP JUMPDEST DUP1 ISZERO PUSH2 0x640 JUMPI DUP1 PUSH1 0x1F LT PUSH2 0x615 JUMPI PUSH2 0x100 DUP1 DUP4 SLOAD DIV MUL DUP4 MSTORE SWAP2 PUSH1 0x20 ADD SWAP2 PUSH2 0x640 JUMP JUMPDEST DUP3 ADD SWAP2 SWAP1 PUSH1 0x0 MSTORE PUSH1 0x20 PUSH1 0x0 KECCAK256 SWAP1 JUMPDEST DUP2 SLOAD DUP2 MSTORE SWAP1 PUSH1 0x1 ADD SWAP1 PUSH1 0x20 ADD DUP1 DUP4 GT PUSH2 0x623 JUMPI DUP3 SWAP1 SUB PUSH1 0x1F AND DUP3 ADD SWAP2 JUMPDEST POP POP POP POP POP DUP2 MSTORE PUSH1 0x20 ADD PUSH1 0x2 DUP3 ADD DUP1 SLOAD PUSH2 0x659 SWAP1 PUSH2 0x1A43 JUMP JUMPDEST DUP1 PUSH1 0x1F ADD PUSH1 0x20 DUP1 SWAP2 DIV MUL PUSH1 0x20 ADD PUSH1 0x40 MLOAD SWAP1 DUP2 ADD PUSH1 0x40 MSTORE DUP1 SWAP3 SWAP2 SWAP1 DUP2 DUP2 MSTORE PUSH1 0x20 ADD DUP3 DUP1 SLOAD PUSH2 0x685 SWAP1 PUSH2 0x1A43 JUMP JUMPDEST DUP1 ISZERO PUSH2 0x6D2 JUMPI DUP1 PUSH1 0x1F LT PUSH2 0x6A7 JUMPI PUSH2 0x100 DUP1 DUP4 SLOAD DIV MUL DUP4 MSTORE SWAP2 PUSH1 0x20 ADD SWAP2 PUSH2 0x6D2 JUMP JUMPDEST DUP3 ADD SWAP2 SWAP1 PUSH1 0x0 MSTORE PUSH1 0x20 PUSH1 0x0 KECCAK256 SWAP1 JUMPDEST DUP2 SLOAD DUP2 MSTORE SWAP1 PUSH1 0x1 ADD SWAP1 PUSH1 0x20 ADD DUP1 DUP4 GT PUSH2 0x6B5 JUMPI DUP3 SWAP1 SUB PUSH1 0x1F AND DUP3 ADD SWAP2 JUMPDEST POP POP POP POP POP DUP2 MSTORE PUSH1 0x20 ADD PUSH1 0x3 DUP3 ADD DUP1 SLOAD PUSH2 0x6EB SWAP1 PUSH2 0x1A43 JUMP JUMPDEST DUP1 PUSH1 0x1F ADD PUSH1 0x20 DUP1 SWAP2 DIV MUL PUSH1 0x20 ADD PUSH1 0x40 MLOAD SWAP1 DUP2 ADD PUSH1 0x40 MSTORE DUP1 SWAP3 SWAP2 SWAP1 DUP2 DUP2 MSTORE PUSH1 0x20 ADD DUP3 DUP1 SLOAD PUSH2 0x717 SWAP1 PUSH2 0x1A43 JUMP JUMPDEST DUP1 ISZERO PUSH2 0x764 JUMPI DUP1 PUSH1 0x1F LT PUSH2 0x739 JUMPI PUSH2 0x100 DUP1 DUP4 SLOAD DIV MUL DUP4 MSTORE SWAP2 PUSH1 0x20 ADD SWAP2 PUSH2 0x764 JUMP JUMPDEST DUP3 ADD SWAP2 SWAP1 PUSH1 0x0 MSTORE PUSH1 0x20 PUSH1 0x0 KECCAK256 SWAP1 JUMPDEST DUP2 SLOAD DUP2 MSTORE SWAP1 PUSH1 0x1 ADD SWAP1 PUSH1 0x20 ADD DUP1 DUP4 GT PUSH2 0x747 JUMPI DUP3 SWAP1 SUB PUSH1 0x1F AND DUP3 ADD SWAP2 JUMPDEST POP POP POP SWAP2 DUP4 MSTORE POP POP PUSH1 0x4 DUP3 ADD SLOAD PUSH1 0x20 SWAP1 SWAP2 ADD SWAP1 PUSH1 0xFF AND PUSH1 0x3 DUP2 GT ISZERO PUSH2 0x78B JUMPI PUSH2 0x78B PUSH2 0x15F5 JUMP JUMPDEST PUSH1 0x3 DUP2 GT ISZERO PUSH2 0x79C JUMPI PUSH2 0x79C PUSH2 0x15F5 JUMP JUMPDEST DUP2 MSTORE PUSH1 0x4 SWAP2 SWAP1 SWAP2 ADD SLOAD PUSH1 0xFF PUSH2 0x100 DUP3 DIV DUP2 AND PUSH1 0x20 DUP5 ADD MSTORE PUSH3 0x10000 SWAP1 SWAP2 DIV AND ISZERO ISZERO PUSH1 0x40 SWAP1 SWAP2 ADD MSTORE DUP4 MLOAD DUP5 SWAP1 DUP4 SWAP1 DUP2 LT PUSH2 0x7D7 JUMPI PUSH2 0x7D7 PUSH2 0x1AB9 JUMP JUMPDEST PUSH1 0x20 SWAP1 DUP2 MUL SWAP2 SWAP1 SWAP2 ADD ADD MSTORE PUSH1 0x1 ADD PUSH2 0x56A JUMP JUMPDEST POP POP SWAP1 JUMP JUMPDEST PUSH1 0x0 SLOAD PUSH1 0x1 PUSH1 0x1 PUSH1 0xA0 SHL SUB AND CALLER EQ PUSH2 0x819 JUMPI PUSH1 0x40 MLOAD PUSH3 0x461BCD PUSH1 0xE5 SHL DUP2 MSTORE PUSH1 0x4 ADD PUSH2 0x246 SWAP1 PUSH2 0x1ACF JUMP JUMPDEST PUSH1 0x5 PUSH1 0x0 DUP4 PUSH1 0x3 DUP2 GT ISZERO PUSH2 0x82F JUMPI PUSH2 0x82F PUSH2 0x15F5 JUMP JUMPDEST PUSH1 0x3 DUP2 GT ISZERO PUSH2 0x840 JUMPI PUSH2 0x840 PUSH2 0x15F5 JUMP JUMPDEST DUP2 MSTORE PUSH1 0x20 DUP1 DUP3 ADD SWAP3 SWAP1 SWAP3 MSTORE PUSH1 0x40 SWAP1 DUP2 ADD PUSH1 0x0 SWAP1 DUP2 KECCAK256 PUSH1 0xFF DUP1 DUP7 AND DUP4 MSTORE SWAP4 MSTORE KECCAK256 SLOAD AND PUSH2 0x89C JUMPI PUSH1 0x40 MLOAD PUSH3 0x461BCD PUSH1 0xE5 SHL DUP2 MSTORE PUSH1 0x20 PUSH1 0x4 DUP3 ADD MSTORE PUSH1 0xC PUSH1 0x24 DUP3 ADD MSTORE PUSH12 0x29B637BA103AB735B737BBB7 PUSH1 0xA1 SHL PUSH1 0x44 DUP3 ADD MSTORE PUSH1 0x64 ADD PUSH2 0x246 JUMP JUMPDEST PUSH1 0x0 PUSH1 0x4 PUSH1 0x0 DUP5 PUSH1 0x3 DUP2 GT ISZERO PUSH2 0x8B4 JUMPI PUSH2 0x8B4 PUSH2 0x15F5 JUMP JUMPDEST PUSH1 0x3 DUP2 GT ISZERO PUSH2 0x8C5 JUMPI PUSH2 0x8C5 PUSH2 0x15F5 JUMP JUMPDEST DUP2 MSTORE PUSH1 0x20 DUP1 DUP3 ADD SWAP3 SWAP1 SWAP3 MSTORE PUSH1 0x40 SWAP1 DUP2 ADD PUSH1 0x0 SWAP1 DUP2 KECCAK256 PUSH1 0xFF DUP7 AND DUP1 DUP4 MSTORE SWAP4 MSTORE KECCAK256 SWAP2 SWAP1 SWAP2 SSTORE DUP3 PUSH1 0x3 DUP2 GT ISZERO PUSH2 0x8FA JUMPI PUSH2 0x8FA PUSH2 0x15F5 JUMP JUMPDEST PUSH1 0x40 MLOAD PUSH32 0xC5A151C56DC45398D3F39B4711F3AC50496D10E569C714A5F3DD90274F19C70F SWAP1 PUSH1 0x0 SWAP1 LOG3 POP POP JUMP JUMPDEST PUSH1 0x0 SLOAD PUSH1 0x1 PUSH1 0x1 PUSH1 0xA0 SHL SUB AND CALLER EQ PUSH2 0x951 JUMPI PUSH1 0x40 MLOAD PUSH3 0x461BCD PUSH1 0xE5 SHL DUP2 MSTORE PUSH1 0x4 ADD PUSH2 0x246 SWAP1 PUSH2 0x1ACF JUMP JUMPDEST PUSH1 0x0 DUP3 PUSH1 0xFF AND GT PUSH2 0x997 JUMPI PUSH1 0x40 MLOAD PUSH3 0x461BCD PUSH1 0xE5 SHL DUP2 MSTORE PUSH1 0x20 PUSH1 0x4 DUP3 ADD MSTORE PUSH1 0x10 PUSH1 0x24 DUP3 ADD MSTORE PUSH16 0x536C6F74206D757374206265203E203 PUSH1 0x84 SHL PUSH1 0x44 DUP3 ADD MSTORE PUSH1 0x64 ADD PUSH2 0x246 JUMP JUMPDEST DUP1 ISZERO PUSH2 0xC3A JUMPI PUSH1 0x0 PUSH1 0x2 PUSH1 0x0 DUP4 DUP2 MSTORE PUSH1 0x20 ADD SWAP1 DUP2 MSTORE PUSH1 0x20 ADD PUSH1 0x0 KECCAK256 PUSH1 0x40 MLOAD DUP1 PUSH1 0xE0 ADD PUSH1 0x40 MSTORE SWAP1 DUP2 PUSH1 0x0 DUP3 ADD SLOAD DUP2 MSTORE PUSH1 0x20 ADD PUSH1 0x1 DUP3 ADD DUP1 SLOAD PUSH2 0x9D7 SWAP1 PUSH2 0x1A43 JUMP JUMPDEST DUP1 PUSH1 0x1F ADD PUSH1 0x20 DUP1 SWAP2 DIV MUL PUSH1 0x20 ADD PUSH1 0x40 MLOAD SWAP1 DUP2 ADD PUSH1 0x40 MSTORE DUP1 SWAP3 SWAP2 SWAP1 DUP2 DUP2 MSTORE PUSH1 0x20 ADD DUP3 DUP1 SLOAD PUSH2 0xA03 SWAP1 PUSH2 0x1A43 JUMP JUMPDEST DUP1 ISZERO PUSH2 0xA50 JUMPI DUP1 PUSH1 0x1F LT PUSH2 0xA25 JUMPI PUSH2 0x100 DUP1 DUP4 SLOAD DIV MUL DUP4 MSTORE SWAP2 PUSH1 0x20 ADD SWAP2 PUSH2 0xA50 JUMP JUMPDEST DUP3 ADD SWAP2 SWAP1 PUSH1 0x0 MSTORE PUSH1 0x20 PUSH1 0x0 KECCAK256 SWAP1 JUMPDEST DUP2 SLOAD DUP2 MSTORE SWAP1 PUSH1 0x1 ADD SWAP1 PUSH1 0x20 ADD DUP1 DUP4 GT PUSH2 0xA33 JUMPI DUP3 SWAP1 SUB PUSH1 0x1F AND DUP3 ADD SWAP2 JUMPDEST POP POP POP POP POP DUP2 MSTORE PUSH1 0x20 ADD PUSH1 0x2 DUP3 ADD DUP1 SLOAD PUSH2 0xA69 SWAP1 PUSH2 0x1A43 JUMP JUMPDEST DUP1 PUSH1 0x1F ADD PUSH1 0x20 DUP1 SWAP2 DIV MUL PUSH1 0x20 ADD PUSH1 0x40 MLOAD SWAP1 DUP2 ADD PUSH1 0x40 MSTORE DUP1 SWAP3 SWAP2 SWAP1 DUP2 DUP2 MSTORE PUSH1 0x20 ADD DUP3 DUP1 SLOAD PUSH2 0xA95 SWAP1 PUSH2 0x1A43 JUMP JUMPDEST DUP1 ISZERO PUSH2 0xAE2 JUMPI DUP1 PUSH1 0x1F LT PUSH2 0xAB7 JUMPI PUSH2 0x100 DUP1 DUP4 SLOAD DIV MUL DUP4 MSTORE SWAP2 PUSH1 0x20 ADD SWAP2 PUSH2 0xAE2 JUMP JUMPDEST DUP3 ADD SWAP2 SWAP1 PUSH1 0x0 MSTORE PUSH1 0x20 PUSH1 0x0 KECCAK256 SWAP1 JUMPDEST DUP2 SLOAD DUP2 MSTORE SWAP1 PUSH1 0x1 ADD SWAP1 PUSH1 0x20 ADD DUP1 DUP4 GT PUSH2 0xAC5 JUMPI DUP3 SWAP1 SUB PUSH1 0x1F AND DUP3 ADD SWAP2 JUMPDEST POP POP POP POP POP DUP2 MSTORE PUSH1 0x20 ADD PUSH1 0x3 DUP3 ADD DUP1 SLOAD PUSH2 0xAFB SWAP1 PUSH2 0x1A43 JUMP JUMPDEST DUP1 PUSH1 0x1F ADD PUSH1 0x20 DUP1 SWAP2 DIV MUL PUSH1 0x20 ADD PUSH1 0x40 MLOAD SWAP1 DUP2 ADD PUSH1 0x40 MSTORE DUP1 SWAP3 SWAP2 SWAP1 DUP2 DUP2 MSTORE PUSH1 0x20 ADD DUP3 DUP1 SLOAD PUSH2 0xB27 SWAP1 PUSH2 0x1A43 JUMP JUMPDEST DUP1 ISZERO PUSH2 0xB74 JUMPI DUP1 PUSH1 0x1F LT PUSH2 0xB49 JUMPI PUSH2 0x100 DUP1 DUP4 SLOAD DIV MUL DUP4 MSTORE SWAP2 PUSH1 0x20 ADD SWAP2 PUSH2 0xB74 JUMP JUMPDEST DUP3 ADD SWAP2 SWAP1 PUSH1 0x0 MSTORE PUSH1 0x20 PUSH1 0x0 KECCAK256 SWAP1 JUMPDEST DUP2 SLOAD DUP2 MSTORE SWAP1 PUSH1 0x1 ADD SWAP1 PUSH1 0x20 ADD DUP1 DUP4 GT PUSH2 0xB57 JUMPI DUP3 SWAP1 SUB PUSH1 0x1F AND DUP3 ADD SWAP2 JUMPDEST POP POP POP SWAP2 DUP4 MSTORE POP POP PUSH1 0x4 DUP3 ADD SLOAD PUSH1 0x20 SWAP1 SWAP2 ADD SWAP1 PUSH1 0xFF AND PUSH1 0x3 DUP2 GT ISZERO PUSH2 0xB9B JUMPI PUSH2 0xB9B PUSH2 0x15F5 JUMP JUMPDEST PUSH1 0x3 DUP2 GT ISZERO PUSH2 0xBAC JUMPI PUSH2 0xBAC PUSH2 0x15F5 JUMP JUMPDEST DUP2 MSTORE PUSH1 0x4 SWAP2 SWAP1 SWAP2 ADD SLOAD PUSH1 0xFF PUSH2 0x100 DUP3 DIV DUP2 AND PUSH1 0x20 DUP5 ADD MSTORE PUSH3 0x10000 SWAP1 SWAP2 DIV AND ISZERO ISZERO PUSH1 0x40 SWAP1 SWAP2 ADD MSTORE DUP1 MLOAD SWAP1 SWAP2 POP PUSH1 0x0 SUB PUSH2 0xBF7 JUMPI PUSH1 0x40 MLOAD PUSH3 0x461BCD PUSH1 0xE5 SHL DUP2 MSTORE PUSH1 0x4 ADD PUSH2 0x246 SWAP1 PUSH2 0x1A7D JUMP JUMPDEST DUP1 PUSH1 0xC0 ADD MLOAD PUSH2 0xC38 JUMPI PUSH1 0x40 MLOAD PUSH3 0x461BCD PUSH1 0xE5 SHL DUP2 MSTORE PUSH1 0x20 PUSH1 0x4 DUP3 ADD MSTORE PUSH1 0xD PUSH1 0x24 DUP3 ADD MSTORE PUSH13 0x4974656D20696E616374697665 PUSH1 0x98 SHL PUSH1 0x44 DUP3 ADD MSTORE PUSH1 0x64 ADD PUSH2 0x246 JUMP JUMPDEST POP JUMPDEST PUSH1 0x5 PUSH1 0x0 DUP5 PUSH1 0x3 DUP2 GT ISZERO PUSH2 0xC50 JUMPI PUSH2 0xC50 PUSH2 0x15F5 JUMP JUMPDEST PUSH1 0x3 DUP2 GT ISZERO PUSH2 0xC61 JUMPI PUSH2 0xC61 PUSH2 0x15F5 JUMP JUMPDEST DUP2 MSTORE PUSH1 0x20 DUP1 DUP3 ADD SWAP3 SWAP1 SWAP3 MSTORE PUSH1 0x40 SWAP1 DUP2 ADD PUSH1 0x0 SWAP1 DUP2 KECCAK256 PUSH1 0xFF DUP1 DUP8 AND DUP4 MSTORE SWAP4 MSTORE KECCAK256 SLOAD AND PUSH2 0xD4B JUMPI PUSH1 0x1 PUSH1 0x5 PUSH1 0x0 DUP6 PUSH1 0x3 DUP2 GT ISZERO PUSH2 0xC9E JUMPI PUSH2 0xC9E PUSH2 0x15F5 JUMP JUMPDEST PUSH1 0x3 DUP2 GT ISZERO PUSH2 0xCAF JUMPI PUSH2 0xCAF PUSH2 0x15F5 JUMP JUMPDEST DUP2 MSTORE PUSH1 0x20 DUP1 DUP3 ADD SWAP3 SWAP1 SWAP3 MSTORE PUSH1 0x40 SWAP1 DUP2 ADD PUSH1 0x0 SWAP1 DUP2 KECCAK256 PUSH1 0xFF DUP8 AND DUP3 MSTORE SWAP1 SWAP3 MSTORE DUP2 KECCAK256 DUP1 SLOAD PUSH1 0xFF NOT AND SWAP3 ISZERO ISZERO SWAP3 SWAP1 SWAP3 OR SWAP1 SWAP2 SSTORE PUSH1 0x6 SWAP1 DUP5 PUSH1 0x3 DUP2 GT ISZERO PUSH2 0xCF4 JUMPI PUSH2 0xCF4 PUSH2 0x15F5 JUMP JUMPDEST PUSH1 0x3 DUP2 GT ISZERO PUSH2 0xD05 JUMPI PUSH2 0xD05 PUSH2 0x15F5 JUMP JUMPDEST DUP2 MSTORE PUSH1 0x20 DUP1 DUP3 ADD SWAP3 SWAP1 SWAP3 MSTORE PUSH1 0x40 ADD PUSH1 0x0 SWAP1 DUP2 KECCAK256 DUP1 SLOAD PUSH1 0x1 DUP2 ADD DUP3 SSTORE SWAP1 DUP3 MSTORE SWAP1 DUP3 SWAP1 KECCAK256 SWAP2 DUP2 DIV SWAP1 SWAP2 ADD DUP1 SLOAD PUSH1 0xFF DUP1 DUP7 AND PUSH1 0x1F SWAP1 SWAP5 AND PUSH2 0x100 EXP SWAP4 DUP5 MUL SWAP4 MUL NOT AND SWAP2 SWAP1 SWAP2 OR SWAP1 SSTORE JUMPDEST DUP1 PUSH1 0x4 PUSH1 0x0 DUP6 PUSH1 0x3 DUP2 GT ISZERO PUSH2 0xD62 JUMPI PUSH2 0xD62 PUSH2 0x15F5 JUMP JUMPDEST PUSH1 0x3 DUP2 GT ISZERO PUSH2 0xD73 JUMPI PUSH2 0xD73 PUSH2 0x15F5 JUMP JUMPDEST DUP2 MSTORE PUSH1 0x20 ADD SWAP1 DUP2 MSTORE PUSH1 0x20 ADD PUSH1 0x0 KECCAK256 PUSH1 0x0 DUP5 PUSH1 0xFF AND PUSH1 0xFF AND DUP2 MSTORE PUSH1 0x20 ADD SWAP1 DUP2 MSTORE PUSH1 0x20 ADD PUSH1 0x0 KECCAK256 DUP2 SWAP1 SSTORE POP DUP1 PUSH1 0x0 SUB PUSH2 0xDE8 JUMPI DUP2 PUSH1 0xFF AND DUP4 PUSH1 0x3 DUP2 GT ISZERO PUSH2 0xDBA JUMPI PUSH2 0xDBA PUSH2 0x15F5 JUMP JUMPDEST PUSH1 0x40 MLOAD PUSH32 0xC5A151C56DC45398D3F39B4711F3AC50496D10E569C714A5F3DD90274F19C70F SWAP1 PUSH1 0x0 SWAP1 LOG3 POP POP POP JUMP JUMPDEST DUP2 PUSH1 0xFF AND DUP4 PUSH1 0x3 DUP2 GT ISZERO PUSH2 0xDFE JUMPI PUSH2 0xDFE PUSH2 0x15F5 JUMP JUMPDEST PUSH1 0x40 MLOAD DUP4 DUP2 MSTORE PUSH32 0x8548AFCE0D13A170AEC713F0F7C03449CC48A2A9DE7A75F26B3D5AE070E78275 SWAP1 PUSH1 0x20 ADD PUSH1 0x40 MLOAD DUP1 SWAP2 SUB SWAP1 LOG3 JUMPDEST POP POP POP JUMP JUMPDEST PUSH1 0x60 PUSH1 0x0 PUSH1 0x6 PUSH1 0x0 DUP5 PUSH1 0x3 DUP2 GT ISZERO PUSH2 0xE51 JUMPI PUSH2 0xE51 PUSH2 0x15F5 JUMP JUMPDEST PUSH1 0x3 DUP2 GT ISZERO PUSH2 0xE62 JUMPI PUSH2 0xE62 PUSH2 0x15F5 JUMP JUMPDEST DUP2 MSTORE PUSH1 0x20 DUP2 ADD SWAP2 SWAP1 SWAP2 MSTORE PUSH1 0x40 ADD PUSH1 0x0 KECCAK256 SLOAD SWAP1 POP DUP1 PUSH8 0xFFFFFFFFFFFFFFFF DUP2 GT ISZERO PUSH2 0xE8E JUMPI PUSH2 0xE8E PUSH2 0x1AA3 JUMP JUMPDEST PUSH1 0x40 MLOAD SWAP1 DUP1 DUP3 MSTORE DUP1 PUSH1 0x20 MUL PUSH1 0x20 ADD DUP3 ADD PUSH1 0x40 MSTORE DUP1 ISZERO PUSH2 0xED9 JUMPI DUP2 PUSH1 0x20 ADD JUMPDEST PUSH1 0x40 DUP1 MLOAD PUSH1 0x60 DUP2 ADD DUP3 MSTORE PUSH1 0x0 DUP1 DUP3 MSTORE PUSH1 0x20 DUP1 DUP4 ADD DUP3 SWAP1 MSTORE SWAP3 DUP3 ADD MSTORE DUP3 MSTORE PUSH1 0x0 NOT SWAP1 SWAP3 ADD SWAP2 ADD DUP2 PUSH2 0xEAC JUMPI SWAP1 POP JUMPDEST POP SWAP2 POP PUSH1 0x0 JUMPDEST DUP2 DUP2 LT ISZERO PUSH2 0xFE7 JUMPI PUSH1 0x0 PUSH1 0x6 PUSH1 0x0 DUP7 PUSH1 0x3 DUP2 GT ISZERO PUSH2 0xEFF JUMPI PUSH2 0xEFF PUSH2 0x15F5 JUMP JUMPDEST PUSH1 0x3 DUP2 GT ISZERO PUSH2 0xF10 JUMPI PUSH2 0xF10 PUSH2 0x15F5 JUMP JUMPDEST DUP2 MSTORE PUSH1 0x20 ADD SWAP1 DUP2 MSTORE PUSH1 0x20 ADD PUSH1 0x0 KECCAK256 DUP3 DUP2 SLOAD DUP2 LT PUSH2 0xF2F JUMPI PUSH2 0xF2F PUSH2 0x1AB9 JUMP JUMPDEST PUSH1 0x0 SWAP2 DUP3 MSTORE PUSH1 0x20 DUP1 DUP4 KECCAK256 SWAP1 DUP3 DIV ADD SLOAD PUSH1 0xFF PUSH1 0x1F SWAP1 SWAP3 AND PUSH2 0x100 EXP SWAP1 DIV AND SWAP2 POP PUSH1 0x4 DUP2 DUP8 PUSH1 0x3 DUP2 GT ISZERO PUSH2 0xF63 JUMPI PUSH2 0xF63 PUSH2 0x15F5 JUMP JUMPDEST PUSH1 0x3 DUP2 GT ISZERO PUSH2 0xF74 JUMPI PUSH2 0xF74 PUSH2 0x15F5 JUMP JUMPDEST DUP2 MSTORE PUSH1 0x20 ADD SWAP1 DUP2 MSTORE PUSH1 0x20 ADD PUSH1 0x0 KECCAK256 PUSH1 0x0 DUP4 PUSH1 0xFF AND PUSH1 0xFF AND DUP2 MSTORE PUSH1 0x20 ADD SWAP1 DUP2 MSTORE PUSH1 0x20 ADD PUSH1 0x0 KECCAK256 SLOAD SWAP1 POP PUSH1 0x40 MLOAD DUP1 PUSH1 0x60 ADD PUSH1 0x40 MSTORE DUP1 DUP4 PUSH1 0xFF AND DUP2 MSTORE PUSH1 0x20 ADD DUP3 DUP2 MSTORE PUSH1 0x20 ADD DUP3 PUSH1 0x0 EQ ISZERO ISZERO ISZERO DUP2 MSTORE POP DUP6 DUP5 DUP2 MLOAD DUP2 LT PUSH2 0xFD2 JUMPI PUSH2 0xFD2 PUSH2 0x1AB9 JUMP JUMPDEST PUSH1 0x20 SWAP1 DUP2 MUL SWAP2 SWAP1 SWAP2 ADD ADD MSTORE POP POP PUSH1 0x1 ADD PUSH2 0xEDF JUMP JUMPDEST POP POP SWAP2 SWAP1 POP JUMP JUMPDEST PUSH1 0x0 DUP1 SLOAD PUSH1 0x1 PUSH1 0x1 PUSH1 0xA0 SHL SUB AND CALLER EQ PUSH2 0x1019 JUMPI PUSH1 0x40 MLOAD PUSH3 0x461BCD PUSH1 0xE5 SHL DUP2 MSTORE PUSH1 0x4 ADD PUSH2 0x246 SWAP1 PUSH2 0x1ACF JUMP JUMPDEST DUP8 PUSH2 0x1056 JUMPI PUSH1 0x40 MLOAD PUSH3 0x461BCD PUSH1 0xE5 SHL DUP2 MSTORE PUSH1 0x20 PUSH1 0x4 DUP3 ADD MSTORE PUSH1 0xD PUSH1 0x24 DUP3 ADD MSTORE PUSH13 0x13985B59481C995C5D5A5C9959 PUSH1 0x9A SHL PUSH1 0x44 DUP3 ADD MSTORE PUSH1 0x64 ADD PUSH2 0x246 JUMP JUMPDEST PUSH1 0x4 DUP3 PUSH1 0xFF AND GT ISZERO PUSH2 0x10A4 JUMPI PUSH1 0x40 MLOAD PUSH3 0x461BCD PUSH1 0xE5 SHL DUP2 MSTORE PUSH1 0x20 PUSH1 0x4 DUP3 ADD MSTORE PUSH1 0x17 PUSH1 0x24 DUP3 ADD MSTORE PUSH23 0x4F776E657220636F6465206F7574206F662072616E6765 PUSH1 0x48 SHL PUSH1 0x44 DUP3 ADD MSTORE PUSH1 0x64 ADD PUSH2 0x246 JUMP JUMPDEST PUSH1 0x1 DUP1 SLOAD SWAP1 PUSH1 0x0 PUSH2 0x10B4 DUP4 PUSH2 0x1AF7 JUMP JUMPDEST SWAP1 SWAP2 SSTORE POP PUSH1 0x0 DUP2 DUP2 MSTORE PUSH1 0x2 PUSH1 0x20 MSTORE PUSH1 0x40 SWAP1 KECCAK256 DUP2 DUP2 SSTORE SWAP1 SWAP2 POP PUSH1 0x1 DUP2 ADD PUSH2 0x10DB DUP11 DUP13 DUP4 PUSH2 0x1B6E JUMP JUMPDEST POP PUSH1 0x2 DUP2 ADD PUSH2 0x10EB DUP9 DUP11 DUP4 PUSH2 0x1B6E JUMP JUMPDEST POP PUSH1 0x3 DUP2 ADD PUSH2 0x10FB DUP7 DUP9 DUP4 PUSH2 0x1B6E JUMP JUMPDEST POP PUSH1 0x4 DUP2 ADD DUP1 SLOAD DUP6 SWAP2 SWAP1 PUSH1 0xFF NOT AND PUSH1 0x1 DUP4 PUSH1 0x3 DUP2 GT ISZERO PUSH2 0x111D JUMPI PUSH2 0x111D PUSH2 0x15F5 JUMP JUMPDEST MUL OR SWAP1 SSTORE POP PUSH1 0x4 DUP2 ADD DUP1 SLOAD PUSH3 0xFF0000 NOT PUSH1 0xFF DUP7 AND PUSH2 0x100 MUL AND PUSH3 0xFFFF00 NOT SWAP1 SWAP2 AND OR PUSH3 0x10000 OR SWAP1 SSTORE PUSH1 0x3 DUP1 SLOAD PUSH1 0x1 DUP2 ADD DUP3 SSTORE PUSH1 0x0 SWAP2 SWAP1 SWAP2 MSTORE PUSH32 0xC2575A0E9E593C00F959F8C92F12DB2869C3395A3B0502D05E2516446F71F85B ADD DUP3 SWAP1 SSTORE PUSH1 0x40 MLOAD DUP3 SWAP1 PUSH32 0x3A6881626DB625E5751D54DDE3FFCC9D651ABF0387516D79774E0128690D841 SWAP1 PUSH2 0x11B3 SWAP1 DUP14 SWAP1 DUP14 SWAP1 DUP9 SWAP1 DUP11 SWAP1 PUSH2 0x1C58 JUMP JUMPDEST PUSH1 0x40 MLOAD DUP1 SWAP2 SUB SWAP1 LOG2 POP SWAP9 SWAP8 POP POP POP POP POP POP POP POP JUMP JUMPDEST PUSH1 0x0 SLOAD PUSH1 0x1 PUSH1 0x1 PUSH1 0xA0 SHL SUB AND CALLER EQ PUSH2 0x11F2 JUMPI PUSH1 0x40 MLOAD PUSH3 0x461BCD PUSH1 0xE5 SHL DUP2 MSTORE PUSH1 0x4 ADD PUSH2 0x246 SWAP1 PUSH2 0x1ACF JUMP JUMPDEST PUSH1 0x1 PUSH1 0x1 PUSH1 0xA0 SHL SUB DUP2 AND PUSH2 0x1238 JUMPI PUSH1 0x40 MLOAD PUSH3 0x461BCD PUSH1 0xE5 SHL DUP2 MSTORE PUSH1 0x20 PUSH1 0x4 DUP3 ADD MSTORE PUSH1 0xD PUSH1 0x24 DUP3 ADD MSTORE PUSH13 0x24B73B30B634B21037BBB732B9 PUSH1 0x99 SHL PUSH1 0x44 DUP3 ADD MSTORE PUSH1 0x64 ADD PUSH2 0x246 JUMP JUMPDEST PUSH1 0x0 DUP1 SLOAD PUSH1 0x40 MLOAD PUSH1 0x1 PUSH1 0x1 PUSH1 0xA0 SHL SUB DUP1 DUP6 AND SWAP4 SWAP3 AND SWAP2 PUSH32 0x8BE0079C531659141344CD1FD0A4F28419497F9722A3DAAFE3B4186F6B6457E0 SWAP2 LOG3 PUSH1 0x0 DUP1 SLOAD PUSH1 0x1 PUSH1 0x1 PUSH1 0xA0 SHL SUB NOT AND PUSH1 0x1 PUSH1 0x1 PUSH1 0xA0 SHL SUB SWAP3 SWAP1 SWAP3 AND SWAP2 SWAP1 SWAP2 OR SWAP1 SSTORE JUMP JUMPDEST PUSH1 0x0 SLOAD PUSH1 0x1 PUSH1 0x1 PUSH1 0xA0 SHL SUB AND CALLER EQ PUSH2 0x12BD JUMPI PUSH1 0x40 MLOAD PUSH3 0x461BCD PUSH1 0xE5 SHL DUP2 MSTORE PUSH1 0x4 ADD PUSH2 0x246 SWAP1 PUSH2 0x1ACF JUMP JUMPDEST PUSH1 0x0 DUP11 DUP2 MSTORE PUSH1 0x2 PUSH1 0x20 MSTORE PUSH1 0x40 DUP2 KECCAK256 DUP1 SLOAD SWAP1 SWAP2 SUB PUSH2 0x12EC JUMPI PUSH1 0x40 MLOAD PUSH3 0x461BCD PUSH1 0xE5 SHL DUP2 MSTORE PUSH1 0x4 ADD PUSH2 0x246 SWAP1 PUSH2 0x1A7D JUMP JUMPDEST DUP9 PUSH2 0x1329 JUMPI PUSH1 0x40 MLOAD PUSH3 0x461BCD PUSH1 0xE5 SHL DUP2 MSTORE PUSH1 0x20 PUSH1 0x4 DUP3 ADD MSTORE PUSH1 0xD PUSH1 0x24 DUP3 ADD MSTORE PUSH13 0x13985B59481C995C5D5A5C9959 PUSH1 0x9A SHL PUSH1 0x44 DUP3 ADD MSTORE PUSH1 0x64 ADD PUSH2 0x246 JUMP JUMPDEST PUSH1 0x4 DUP4 PUSH1 0xFF AND GT ISZERO PUSH2 0x1377 JUMPI PUSH1 0x40 MLOAD PUSH3 0x461BCD PUSH1 0xE5 SHL DUP2 MSTORE PUSH1 0x20 PUSH1 0x4 DUP3 ADD MSTORE PUSH1 0x17 PUSH1 0x24 DUP3 ADD MSTORE PUSH23 0x4F776E657220636F6465206F7574206F662072616E6765 PUSH1 0x48 SHL PUSH1 0x44 DUP3 ADD MSTORE PUSH1 0x64 ADD PUSH2 0x246 JUMP JUMPDEST PUSH1 0x1 DUP2 ADD PUSH2 0x1386 DUP11 DUP13 DUP4 PUSH2 0x1B6E JUMP JUMPDEST POP PUSH1 0x2 DUP2 ADD PUSH2 0x1396 DUP9 DUP11 DUP4 PUSH2 0x1B6E JUMP JUMPDEST POP PUSH1 0x3 DUP2 ADD PUSH2 0x13A6 DUP7 DUP9 DUP4 PUSH2 0x1B6E JUMP JUMPDEST POP PUSH1 0x4 DUP2 ADD DUP1 SLOAD DUP6 SWAP2 SWAP1 PUSH1 0xFF NOT AND PUSH1 0x1 DUP4 PUSH1 0x3 DUP2 GT ISZERO PUSH2 0x13C8 JUMPI PUSH2 0x13C8 PUSH2 0x15F5 JUMP JUMPDEST MUL OR SWAP1 SSTORE POP PUSH1 0x4 DUP2 ADD DUP1 SLOAD PUSH3 0xFFFF00 NOT AND PUSH2 0x100 PUSH1 0xFF DUP7 AND MUL PUSH3 0xFF0000 NOT AND OR PUSH3 0x10000 DUP5 ISZERO ISZERO MUL OR SWAP1 SSTORE PUSH1 0x40 MLOAD DUP12 SWAP1 PUSH32 0xCF3AB8693137347164E1A6BA955CF5BEE5FFE2F26A04FB8B37533FD740CE0A98 SWAP1 PUSH2 0x142D SWAP1 DUP14 SWAP1 DUP14 SWAP1 DUP9 SWAP1 DUP11 SWAP1 DUP10 SWAP1 PUSH2 0x1C8D JUMP JUMPDEST PUSH1 0x40 MLOAD DUP1 SWAP2 SUB SWAP1 LOG2 POP POP POP POP POP POP POP POP POP POP POP JUMP JUMPDEST PUSH1 0x60 PUSH1 0x6 PUSH1 0x0 DUP4 PUSH1 0x3 DUP2 GT ISZERO PUSH2 0x145A JUMPI PUSH2 0x145A PUSH2 0x15F5 JUMP JUMPDEST PUSH1 0x3 DUP2 GT ISZERO PUSH2 0x146B JUMPI PUSH2 0x146B PUSH2 0x15F5 JUMP JUMPDEST DUP2 MSTORE PUSH1 0x20 ADD SWAP1 DUP2 MSTORE PUSH1 0x20 ADD PUSH1 0x0 KECCAK256 DUP1 SLOAD DUP1 PUSH1 0x20 MUL PUSH1 0x20 ADD PUSH1 0x40 MLOAD SWAP1 DUP2 ADD PUSH1 0x40 MSTORE DUP1 SWAP3 SWAP2 SWAP1 DUP2 DUP2 MSTORE PUSH1 0x20 ADD DUP3 DUP1 SLOAD DUP1 ISZERO PUSH2 0x14E1 JUMPI PUSH1 0x20 MUL DUP3 ADD SWAP2 SWAP1 PUSH1 0x0 MSTORE PUSH1 0x20 PUSH1 0x0 KECCAK256 SWAP1 PUSH1 0x0 SWAP1 JUMPDEST DUP3 SLOAD PUSH2 0x100 DUP4 SWAP1 EXP SWAP1 DIV PUSH1 0xFF AND DUP2 MSTORE PUSH1 0x20 PUSH1 0x1 SWAP3 DUP4 ADD DUP2 DUP2 DIV SWAP5 DUP6 ADD SWAP5 SWAP1 SWAP4 SUB SWAP1 SWAP3 MUL SWAP2 ADD DUP1 DUP5 GT PUSH2 0x14B2 JUMPI SWAP1 POP JUMPDEST POP POP POP POP POP SWAP1 POP SWAP2 SWAP1 POP JUMP JUMPDEST PUSH1 0x40 MLOAD DUP1 PUSH1 0xE0 ADD PUSH1 0x40 MSTORE DUP1 PUSH1 0x0 DUP2 MSTORE PUSH1 0x20 ADD PUSH1 0x60 DUP2 MSTORE PUSH1 0x20 ADD PUSH1 0x60 DUP2 MSTORE PUSH1 0x20 ADD PUSH1 0x60 DUP2 MSTORE PUSH1 0x20 ADD PUSH1 0x0 PUSH1 0x3 DUP2 GT ISZERO PUSH2 0x1527 JUMPI PUSH2 0x1527 PUSH2 0x15F5 JUMP JUMPDEST DUP2 MSTORE PUSH1 0x0 PUSH1 0x20 DUP3 ADD DUP2 SWAP1 MSTORE PUSH1 0x40 SWAP1 SWAP2 ADD MSTORE SWAP1 JUMP JUMPDEST PUSH1 0x4 DUP2 LT PUSH2 0x1548 JUMPI PUSH1 0x0 DUP1 REVERT JUMPDEST POP JUMP JUMPDEST DUP1 CALLDATALOAD PUSH1 0xFF DUP2 AND DUP2 EQ PUSH2 0x155C JUMPI PUSH1 0x0 DUP1 REVERT JUMPDEST SWAP2 SWAP1 POP JUMP JUMPDEST PUSH1 0x0 DUP1 PUSH1 0x40 DUP4 DUP6 SUB SLT ISZERO PUSH2 0x1574 JUMPI PUSH1 0x0 DUP1 REVERT JUMPDEST DUP3 CALLDATALOAD PUSH2 0x157F DUP2 PUSH2 0x153B JUMP JUMPDEST SWAP2 POP PUSH2 0x158D PUSH1 0x20 DUP5 ADD PUSH2 0x154B JUMP JUMPDEST SWAP1 POP SWAP3 POP SWAP3 SWAP1 POP JUMP JUMPDEST PUSH1 0x0 PUSH1 0x20 DUP3 DUP5 SUB SLT ISZERO PUSH2 0x15A8 JUMPI PUSH1 0x0 DUP1 REVERT JUMPDEST POP CALLDATALOAD SWAP2 SWAP1 POP JUMP JUMPDEST PUSH1 0x0 DUP2 MLOAD DUP1 DUP5 MSTORE PUSH1 0x0 JUMPDEST DUP2 DUP2 LT ISZERO PUSH2 0x15D5 JUMPI PUSH1 0x20 DUP2 DUP6 ADD DUP2 ADD MLOAD DUP7 DUP4 ADD DUP3 ADD MSTORE ADD PUSH2 0x15B9 JUMP JUMPDEST POP PUSH1 0x0 PUSH1 0x20 DUP3 DUP7 ADD ADD MSTORE PUSH1 0x20 PUSH1 0x1F NOT PUSH1 0x1F DUP4 ADD AND DUP6 ADD ADD SWAP2 POP POP SWAP3 SWAP2 POP POP JUMP JUMPDEST PUSH4 0x4E487B71 PUSH1 0xE0 SHL PUSH1 0x0 MSTORE PUSH1 0x21 PUSH1 0x4 MSTORE PUSH1 0x24 PUSH1 0x0 REVERT JUMPDEST PUSH1 0x4 DUP2 LT PUSH2 0x1629 JUMPI PUSH4 0x4E487B71 PUSH1 0xE0 SHL PUSH1 0x0 MSTORE PUSH1 0x21 PUSH1 0x4 MSTORE PUSH1 0x24 PUSH1 0x0 REVERT JUMPDEST SWAP1 MSTORE JUMP JUMPDEST DUP1 MLOAD DUP3 MSTORE PUSH1 0x0 PUSH1 0x20 DUP3 ADD MLOAD PUSH1 0xE0 PUSH1 0x20 DUP6 ADD MSTORE PUSH2 0x164C PUSH1 0xE0 DUP6 ADD DUP3 PUSH2 0x15AF JUMP JUMPDEST SWAP1 POP PUSH1 0x40 DUP4 ADD MLOAD DUP5 DUP3 SUB PUSH1 0x40 DUP7 ADD MSTORE PUSH2 0x1665 DUP3 DUP3 PUSH2 0x15AF JUMP JUMPDEST SWAP2 POP POP PUSH1 0x60 DUP4 ADD MLOAD DUP5 DUP3 SUB PUSH1 0x60 DUP7 ADD MSTORE PUSH2 0x167F DUP3 DUP3 PUSH2 0x15AF JUMP JUMPDEST SWAP2 POP POP PUSH1 0x80 DUP4 ADD MLOAD PUSH2 0x1694 PUSH1 0x80 DUP7 ADD DUP3 PUSH2 0x160B JUMP JUMPDEST POP PUSH1 0xFF PUSH1 0xA0 DUP5 ADD MLOAD AND PUSH1 0xA0 DUP6 ADD MSTORE PUSH1 0xC0 DUP4 ADD MLOAD ISZERO ISZERO PUSH1 0xC0 DUP6 ADD MSTORE DUP1 SWAP2 POP POP SWAP3 SWAP2 POP POP JUMP JUMPDEST PUSH1 0x20 DUP2 MSTORE PUSH1 0x0 PUSH2 0x16CB PUSH1 0x20 DUP4 ADD DUP5 PUSH2 0x162D JUMP JUMPDEST SWAP4 SWAP3 POP POP POP JUMP JUMPDEST PUSH1 0x0 PUSH1 0x20 DUP1 DUP4 ADD PUSH1 0x20 DUP5 MSTORE DUP1 DUP6 MLOAD DUP1 DUP4 MSTORE PUSH1 0x40 DUP7 ADD SWAP2 POP PUSH1 0x40 DUP2 PUSH1 0x5 SHL DUP8 ADD ADD SWAP3 POP PUSH1 0x20 DUP8 ADD PUSH1 0x0 JUMPDEST DUP3 DUP2 LT ISZERO PUSH2 0x1729 JUMPI PUSH1 0x3F NOT DUP9 DUP7 SUB ADD DUP5 MSTORE PUSH2 0x1717 DUP6 DUP4 MLOAD PUSH2 0x162D JUMP JUMPDEST SWAP5 POP SWAP3 DUP6 ADD SWAP3 SWAP1 DUP6 ADD SWAP1 PUSH1 0x1 ADD PUSH2 0x16FB JUMP JUMPDEST POP SWAP3 SWAP8 SWAP7 POP POP POP POP POP POP POP JUMP JUMPDEST PUSH1 0x0 DUP1 PUSH1 0x0 PUSH1 0x60 DUP5 DUP7 SUB SLT ISZERO PUSH2 0x174B JUMPI PUSH1 0x0 DUP1 REVERT JUMPDEST DUP4 CALLDATALOAD PUSH2 0x1756 DUP2 PUSH2 0x153B JUMP JUMPDEST SWAP3 POP PUSH2 0x1764 PUSH1 0x20 DUP6 ADD PUSH2 0x154B JUMP JUMPDEST SWAP2 POP PUSH1 0x40 DUP5 ADD CALLDATALOAD SWAP1 POP SWAP3 POP SWAP3 POP SWAP3 JUMP JUMPDEST PUSH1 0x0 PUSH1 0x20 DUP3 DUP5 SUB SLT ISZERO PUSH2 0x1786 JUMPI PUSH1 0x0 DUP1 REVERT JUMPDEST DUP2 CALLDATALOAD PUSH2 0x16CB DUP2 PUSH2 0x153B JUMP JUMPDEST PUSH1 0x20 DUP1 DUP3 MSTORE DUP3 MLOAD DUP3 DUP3 ADD DUP2 SWAP1 MSTORE PUSH1 0x0 SWAP2 SWAP1 PUSH1 0x40 SWAP1 DUP2 DUP6 ADD SWAP1 DUP7 DUP5 ADD DUP6 JUMPDEST DUP3 DUP2 LT ISZERO PUSH2 0x17E2 JUMPI DUP2 MLOAD DUP1 MLOAD PUSH1 0xFF AND DUP6 MSTORE DUP7 DUP2 ADD MLOAD DUP8 DUP7 ADD MSTORE DUP6 ADD MLOAD ISZERO ISZERO DUP6 DUP6 ADD MSTORE PUSH1 0x60 SWAP1 SWAP4 ADD SWAP3 SWAP1 DUP6 ADD SWAP1 PUSH1 0x1 ADD PUSH2 0x17AE JUMP JUMPDEST POP SWAP2 SWAP8 SWAP7 POP POP POP POP POP POP POP JUMP JUMPDEST PUSH1 0x0 DUP1 DUP4 PUSH1 0x1F DUP5 ADD SLT PUSH2 0x1801 JUMPI PUSH1 0x0 DUP1 REVERT JUMPDEST POP DUP2 CALLDATALOAD PUSH8 0xFFFFFFFFFFFFFFFF DUP2 GT ISZERO PUSH2 0x1819 JUMPI PUSH1 0x0 DUP1 REVERT JUMPDEST PUSH1 0x20 DUP4 ADD SWAP2 POP DUP4 PUSH1 0x20 DUP3 DUP6 ADD ADD GT ISZERO PUSH2 0x1831 JUMPI PUSH1 0x0 DUP1 REVERT JUMPDEST SWAP3 POP SWAP3 SWAP1 POP JUMP JUMPDEST PUSH1 0x0 DUP1 PUSH1 0x0 DUP1 PUSH1 0x0 DUP1 PUSH1 0x0 DUP1 PUSH1 0xA0 DUP10 DUP12 SUB SLT ISZERO PUSH2 0x1854 JUMPI PUSH1 0x0 DUP1 REVERT JUMPDEST DUP9 CALLDATALOAD PUSH8 0xFFFFFFFFFFFFFFFF DUP1 DUP3 GT ISZERO PUSH2 0x186C JUMPI PUSH1 0x0 DUP1 REVERT JUMPDEST PUSH2 0x1878 DUP13 DUP4 DUP14 ADD PUSH2 0x17EF JUMP JUMPDEST SWAP1 SWAP11 POP SWAP9 POP PUSH1 0x20 DUP12 ADD CALLDATALOAD SWAP2 POP DUP1 DUP3 GT ISZERO PUSH2 0x1891 JUMPI PUSH1 0x0 DUP1 REVERT JUMPDEST PUSH2 0x189D DUP13 DUP4 DUP14 ADD PUSH2 0x17EF JUMP JUMPDEST SWAP1 SWAP9 POP SWAP7 POP PUSH1 0x40 DUP12 ADD CALLDATALOAD SWAP2 POP DUP1 DUP3 GT ISZERO PUSH2 0x18B6 JUMPI PUSH1 0x0 DUP1 REVERT JUMPDEST POP PUSH2 0x18C3 DUP12 DUP3 DUP13 ADD PUSH2 0x17EF JUMP JUMPDEST SWAP1 SWAP6 POP SWAP4 POP POP PUSH1 0x60 DUP10 ADD CALLDATALOAD PUSH2 0x18D7 DUP2 PUSH2 0x153B JUMP JUMPDEST SWAP2 POP PUSH2 0x18E5 PUSH1 0x80 DUP11 ADD PUSH2 0x154B JUMP JUMPDEST SWAP1 POP SWAP3 SWAP6 SWAP9 POP SWAP3 SWAP6 SWAP9 SWAP1 SWAP4 SWAP7 POP JUMP JUMPDEST PUSH1 0x0 PUSH1 0x20 DUP3 DUP5 SUB SLT ISZERO PUSH2 0x1906 JUMPI PUSH1 0x0 DUP1 REVERT JUMPDEST DUP2 CALLDATALOAD PUSH1 0x1 PUSH1 0x1 PUSH1 0xA0 SHL SUB DUP2 AND DUP2 EQ PUSH2 0x16CB JUMPI PUSH1 0x0 DUP1 REVERT JUMPDEST PUSH1 0x0 DUP1 PUSH1 0x0 DUP1 PUSH1 0x0 DUP1 PUSH1 0x0 DUP1 PUSH1 0x0 DUP1 PUSH1 0xE0 DUP12 DUP14 SUB SLT ISZERO PUSH2 0x193C JUMPI PUSH1 0x0 DUP1 REVERT JUMPDEST DUP11 CALLDATALOAD SWAP10 POP PUSH1 0x20 DUP12 ADD CALLDATALOAD PUSH8 0xFFFFFFFFFFFFFFFF DUP1 DUP3 GT ISZERO PUSH2 0x195B JUMPI PUSH1 0x0 DUP1 REVERT JUMPDEST PUSH2 0x1967 DUP15 DUP4 DUP16 ADD PUSH2 0x17EF JUMP JUMPDEST SWAP1 SWAP12 POP SWAP10 POP PUSH1 0x40 DUP14 ADD CALLDATALOAD SWAP2 POP DUP1 DUP3 GT ISZERO PUSH2 0x1980 JUMPI PUSH1 0x0 DUP1 REVERT JUMPDEST PUSH2 0x198C DUP15 DUP4 DUP16 ADD PUSH2 0x17EF JUMP JUMPDEST SWAP1 SWAP10 POP SWAP8 POP PUSH1 0x60 DUP14 ADD CALLDATALOAD SWAP2 POP DUP1 DUP3 GT ISZERO PUSH2 0x19A5 JUMPI PUSH1 0x0 DUP1 REVERT JUMPDEST POP PUSH2 0x19B2 DUP14 DUP3 DUP15 ADD PUSH2 0x17EF JUMP JUMPDEST SWAP1 SWAP7 POP SWAP5 POP POP PUSH1 0x80 DUP12 ADD CALLDATALOAD PUSH2 0x19C6 DUP2 PUSH2 0x153B JUMP JUMPDEST SWAP3 POP PUSH2 0x19D4 PUSH1 0xA0 DUP13 ADD PUSH2 0x154B JUMP JUMPDEST SWAP2 POP PUSH1 0xC0 DUP12 ADD CALLDATALOAD DUP1 ISZERO ISZERO DUP2 EQ PUSH2 0x19E9 JUMPI PUSH1 0x0 DUP1 REVERT JUMPDEST DUP1 SWAP2 POP POP SWAP3 SWAP6 SWAP9 SWAP12 SWAP2 SWAP5 SWAP8 SWAP11 POP SWAP3 SWAP6 SWAP9 POP JUMP JUMPDEST PUSH1 0x20 DUP1 DUP3 MSTORE DUP3 MLOAD DUP3 DUP3 ADD DUP2 SWAP1 MSTORE PUSH1 0x0 SWAP2 SWAP1 DUP5 DUP3 ADD SWAP1 PUSH1 0x40 DUP6 ADD SWAP1 DUP5 JUMPDEST DUP2 DUP2 LT ISZERO PUSH2 0x1A37 JUMPI DUP4 MLOAD PUSH1 0xFF AND DUP4 MSTORE SWAP3 DUP5 ADD SWAP3 SWAP2 DUP5 ADD SWAP2 PUSH1 0x1 ADD PUSH2 0x1A18 JUMP JUMPDEST POP SWAP1 SWAP7 SWAP6 POP POP POP POP POP POP JUMP JUMPDEST PUSH1 0x1 DUP2 DUP2 SHR SWAP1 DUP3 AND DUP1 PUSH2 0x1A57 JUMPI PUSH1 0x7F DUP3 AND SWAP2 POP JUMPDEST PUSH1 0x20 DUP3 LT DUP2 SUB PUSH2 0x1A77 JUMPI PUSH4 0x4E487B71 PUSH1 0xE0 SHL PUSH1 0x0 MSTORE PUSH1 0x22 PUSH1 0x4 MSTORE PUSH1 0x24 PUSH1 0x0 REVERT JUMPDEST POP SWAP2 SWAP1 POP JUMP JUMPDEST PUSH1 0x20 DUP1 DUP3 MSTORE PUSH1 0xC SWAP1 DUP3 ADD MSTORE PUSH12 0x556E6B6E6F776E206974656D PUSH1 0xA0 SHL PUSH1 0x40 DUP3 ADD MSTORE PUSH1 0x60 ADD SWAP1 JUMP JUMPDEST PUSH4 0x4E487B71 PUSH1 0xE0 SHL PUSH1 0x0 MSTORE PUSH1 0x41 PUSH1 0x4 MSTORE PUSH1 0x24 PUSH1 0x0 REVERT JUMPDEST PUSH4 0x4E487B71 PUSH1 0xE0 SHL PUSH1 0x0 MSTORE PUSH1 0x32 PUSH1 0x4 MSTORE PUSH1 0x24 PUSH1 0x0 REVERT JUMPDEST PUSH1 0x20 DUP1 DUP3 MSTORE PUSH1 0xE SWAP1 DUP3 ADD MSTORE PUSH14 0x139BDD08185D5D1A1BDC9A5E9959 PUSH1 0x92 SHL PUSH1 0x40 DUP3 ADD MSTORE PUSH1 0x60 ADD SWAP1 JUMP JUMPDEST PUSH1 0x0 PUSH1 0x1 DUP3 ADD PUSH2 0x1B17 JUMPI PUSH4 0x4E487B71 PUSH1 0xE0 SHL PUSH1 0x0 MSTORE PUSH1 0x11 PUSH1 0x4 MSTORE PUSH1 0x24 PUSH1 0x0 REVERT JUMPDEST POP PUSH1 0x1 ADD SWAP1 JUMP JUMPDEST PUSH1 0x1F DUP3 GT ISZERO PUSH2 0xE32 JUMPI PUSH1 0x0 DUP2 PUSH1 0x0 MSTORE PUSH1 0x20 PUSH1 0x0 KECCAK256 PUSH1 0x1F DUP6 ADD PUSH1 0x5 SHR DUP2 ADD PUSH1 0x20 DUP7 LT ISZERO PUSH2 0x1B47 JUMPI POP DUP1 JUMPDEST PUSH1 0x1F DUP6 ADD PUSH1 0x5 SHR DUP3 ADD SWAP2 POP JUMPDEST DUP2 DUP2 LT ISZERO PUSH2 0x1B66 JUMPI DUP3 DUP2 SSTORE PUSH1 0x1 ADD PUSH2 0x1B53 JUMP JUMPDEST POP POP POP POP POP POP JUMP JUMPDEST PUSH8 0xFFFFFFFFFFFFFFFF DUP4 GT ISZERO PUSH2 0x1B86 JUMPI PUSH2 0x1B86 PUSH2 0x1AA3 JUMP JUMPDEST PUSH2 0x1B9A DUP4 PUSH2 0x1B94 DUP4 SLOAD PUSH2 0x1A43 JUMP JUMPDEST DUP4 PUSH2 0x1B1E JUMP JUMPDEST PUSH1 0x0 PUSH1 0x1F DUP5 GT PUSH1 0x1 DUP2 EQ PUSH2 0x1BCE JUMPI PUSH1 0x0 DUP6 ISZERO PUSH2 0x1BB6 JUMPI POP DUP4 DUP3 ADD CALLDATALOAD JUMPDEST PUSH1 0x0 NOT PUSH1 0x3 DUP8 SWAP1 SHL SHR NOT AND PUSH1 0x1 DUP7 SWAP1 SHL OR DUP4 SSTORE PUSH2 0x1C28 JUMP JUMPDEST PUSH1 0x0 DUP4 DUP2 MSTORE PUSH1 0x20 SWAP1 KECCAK256 PUSH1 0x1F NOT DUP7 AND SWAP1 DUP4 JUMPDEST DUP3 DUP2 LT ISZERO PUSH2 0x1BFF JUMPI DUP7 DUP6 ADD CALLDATALOAD DUP3 SSTORE PUSH1 0x20 SWAP5 DUP6 ADD SWAP5 PUSH1 0x1 SWAP1 SWAP3 ADD SWAP2 ADD PUSH2 0x1BDF JUMP JUMPDEST POP DUP7 DUP3 LT ISZERO PUSH2 0x1C1C JUMPI PUSH1 0x0 NOT PUSH1 0xF8 DUP9 PUSH1 0x3 SHL AND SHR NOT DUP5 DUP8 ADD CALLDATALOAD AND DUP2 SSTORE JUMPDEST POP POP PUSH1 0x1 DUP6 PUSH1 0x1 SHL ADD DUP4 SSTORE JUMPDEST POP POP POP POP POP JUMP JUMPDEST DUP2 DUP4 MSTORE DUP2 DUP2 PUSH1 0x20 DUP6 ADD CALLDATACOPY POP PUSH1 0x0 DUP3 DUP3 ADD PUSH1 0x20 SWAP1 DUP2 ADD SWAP2 SWAP1 SWAP2 MSTORE PUSH1 0x1F SWAP1 SWAP2 ADD PUSH1 0x1F NOT AND SWAP1 SWAP2 ADD ADD SWAP1 JUMP JUMPDEST PUSH1 0x60 DUP2 MSTORE PUSH1 0x0 PUSH2 0x1C6C PUSH1 0x60 DUP4 ADD DUP7 DUP9 PUSH2 0x1C2F JUMP JUMPDEST SWAP1 POP PUSH1 0xFF DUP5 AND PUSH1 0x20 DUP4 ADD MSTORE PUSH2 0x1C84 PUSH1 0x40 DUP4 ADD DUP5 PUSH2 0x160B JUMP JUMPDEST SWAP6 SWAP5 POP POP POP POP POP JUMP JUMPDEST PUSH1 0x80 DUP2 MSTORE PUSH1 0x0 PUSH2 0x1CA1 PUSH1 0x80 DUP4 ADD DUP8 DUP10 PUSH2 0x1C2F JUMP JUMPDEST SWAP1 POP PUSH1 0xFF DUP6 AND PUSH1 0x20 DUP4 ADD MSTORE PUSH2 0x1CB9 PUSH1 0x40 DUP4 ADD DUP6 PUSH2 0x160B JUMP JUMPDEST DUP3 ISZERO ISZERO PUSH1 0x60 DUP4 ADD MSTORE SWAP7 SWAP6 POP POP POP POP POP POP JUMP INVALID LOG2 PUSH5 0x6970667358 0x22 SLT KECCAK256 ISZERO 0x25 DELEGATECALL DIV PUSH15 0x7EEB007EEBB019F7CBFB3C8D70C4FB 0xF8 0xB0 STOP SWAP10 LOG2 SWAP13 GT DUP13 PUSH20 0x3B5EF564736F6C63430008180033000000000000 "},"methodIdentifiers":{"clearInventorySlot(uint8,uint8)":"43903821","createItem(string,string,string,uint8,uint8)":"e2a680f3","getClassSlots(uint8)":"fa9adb77","getInventory(uint8)":"85a16888","getItem(uint256)":"3129e773","listItems()":"355eefc8","owner()":"8da5cb5b","setInventorySlot(uint8,uint8,uint256)":"47269837","slotItemId(uint8,uint8)":"012eec4a","transferOwnership(address)":"f2fde38b","updateItem(uint256,string,string,string,uint8,uint8,bool)":"f63c5184"}}}}}