{
  "_format": "hh-sol-artifact-1",
  "contractName": "NitroLegacyInventory",
  "sourceName": "contracts/NitroLegacyInventory.sol",
  "abi": [
    {
      "inputs": [],
      "stateMutability": "nonpayable",
      "type": "constructor"
    },
    {
      "anonymous": false,
      "inputs": [
        {
          "indexed": true,
          "internalType": "uint256",
          "name": "itemId",
          "type": "uint256"
        },
        {
          "indexed": false,
          "internalType": "string",
          "name": "name",
          "type": "string"
        },
        {
          "indexed": false,
          "internalType": "uint8",
          "name": "ownerCode",
          "type": "uint8"
        },
        {
          "indexed": false,
          "internalType": "enum NitroLegacyInventory.Rarity",
          "name": "rarity",
          "type": "uint8"
        }
      ],
      "name": "ItemCreated",
      "type": "event"
    },
    {
      "anonymous": false,
      "inputs": [
        {
          "indexed": true,
          "internalType": "uint256",
          "name": "itemId",
          "type": "uint256"
        },
        {
          "indexed": false,
          "internalType": "string",
          "name": "name",
          "type": "string"
        },
        {
          "indexed": false,
          "internalType": "uint8",
          "name": "ownerCode",
          "type": "uint8"
        },
        {
          "indexed": false,
          "internalType": "enum NitroLegacyInventory.Rarity",
          "name": "rarity",
          "type": "uint8"
        },
        {
          "indexed": false,
          "internalType": "bool",
          "name": "active",
          "type": "bool"
        }
      ],
      "name": "ItemUpdated",
      "type": "event"
    },
    {
      "anonymous": false,
      "inputs": [
        {
          "indexed": true,
          "internalType": "address",
          "name": "previousOwner",
          "type": "address"
        },
        {
          "indexed": true,
          "internalType": "address",
          "name": "newOwner",
          "type": "address"
        }
      ],
      "name": "OwnershipTransferred",
      "type": "event"
    },
    {
      "anonymous": false,
      "inputs": [
        {
          "indexed": true,
          "internalType": "enum NitroLegacyInventory.ClassId",
          "name": "classId",
          "type": "uint8"
        },
        {
          "indexed": true,
          "internalType": "uint8",
          "name": "slot",
          "type": "uint8"
        }
      ],
      "name": "SlotCleared",
      "type": "event"
    },
    {
      "anonymous": false,
      "inputs": [
        {
          "indexed": true,
          "internalType": "enum NitroLegacyInventory.ClassId",
          "name": "classId",
          "type": "uint8"
        },
        {
          "indexed": true,
          "internalType": "uint8",
          "name": "slot",
          "type": "uint8"
        },
        {
          "indexed": false,
          "internalType": "uint256",
          "name": "itemId",
          "type": "uint256"
        }
      ],
      "name": "SlotSet",
      "type": "event"
    },
    {
      "inputs": [
        {
          "internalType": "enum NitroLegacyInventory.ClassId",
          "name": "classId",
          "type": "uint8"
        },
        {
          "internalType": "uint8",
          "name": "slot",
          "type": "uint8"
        }
      ],
      "name": "clearInventorySlot",
      "outputs": [],
      "stateMutability": "nonpayable",
      "type": "function"
    },
    {
      "inputs": [
        {
          "internalType": "string",
          "name": "name_",
          "type": "string"
        },
        {
          "internalType": "string",
          "name": "icon_",
          "type": "string"
        },
        {
          "internalType": "string",
          "name": "description_",
          "type": "string"
        },
        {
          "internalType": "enum NitroLegacyInventory.Rarity",
          "name": "rarity_",
          "type": "uint8"
        },
        {
          "internalType": "uint8",
          "name": "ownerCode_",
          "type": "uint8"
        }
      ],
      "name": "createItem",
      "outputs": [
        {
          "internalType": "uint256",
          "name": "itemId",
          "type": "uint256"
        }
      ],
      "stateMutability": "nonpayable",
      "type": "function"
    },
    {
      "inputs": [
        {
          "internalType": "enum NitroLegacyInventory.ClassId",
          "name": "classId",
          "type": "uint8"
        }
      ],
      "name": "getClassSlots",
      "outputs": [
        {
          "internalType": "uint8[]",
          "name": "",
          "type": "uint8[]"
        }
      ],
      "stateMutability": "view",
      "type": "function"
    },
    {
      "inputs": [
        {
          "internalType": "enum NitroLegacyInventory.ClassId",
          "name": "classId",
          "type": "uint8"
        }
      ],
      "name": "getInventory",
      "outputs": [
        {
          "components": [
            {
              "internalType": "uint8",
              "name": "slot",
              "type": "uint8"
            },
            {
              "internalType": "uint256",
              "name": "itemId",
              "type": "uint256"
            },
            {
              "internalType": "bool",
              "name": "hasItem",
              "type": "bool"
            }
          ],
          "internalType": "struct NitroLegacyInventory.InventorySlot[]",
          "name": "slots",
          "type": "tuple[]"
        }
      ],
      "stateMutability": "view",
      "type": "function"
    },
    {
      "inputs": [
        {
          "internalType": "uint256",
          "name": "itemId",
          "type": "uint256"
        }
      ],
      "name": "getItem",
      "outputs": [
        {
          "components": [
            {
              "internalType": "uint256",
              "name": "id",
              "type": "uint256"
            },
            {
              "internalType": "string",
              "name": "name",
              "type": "string"
            },
            {
              "internalType": "string",
              "name": "icon",
              "type": "string"
            },
            {
              "internalType": "string",
              "name": "description",
              "type": "string"
            },
            {
              "internalType": "enum NitroLegacyInventory.Rarity",
              "name": "rarity",
              "type": "uint8"
            },
            {
              "internalType": "uint8",
              "name": "ownerCode",
              "type": "uint8"
            },
            {
              "internalType": "bool",
              "name": "active",
              "type": "bool"
            }
          ],
          "internalType": "struct NitroLegacyInventory.Item",
          "name": "",
          "type": "tuple"
        }
      ],
      "stateMutability": "view",
      "type": "function"
    },
    {
      "inputs": [],
      "name": "listItems",
      "outputs": [
        {
          "components": [
            {
              "internalType": "uint256",
              "name": "id",
              "type": "uint256"
            },
            {
              "internalType": "string",
              "name": "name",
              "type": "string"
            },
            {
              "internalType": "string",
              "name": "icon",
              "type": "string"
            },
            {
              "internalType": "string",
              "name": "description",
              "type": "string"
            },
            {
              "internalType": "enum NitroLegacyInventory.Rarity",
              "name": "rarity",
              "type": "uint8"
            },
            {
              "internalType": "uint8",
              "name": "ownerCode",
              "type": "uint8"
            },
            {
              "internalType": "bool",
              "name": "active",
              "type": "bool"
            }
          ],
          "internalType": "struct NitroLegacyInventory.Item[]",
          "name": "items",
          "type": "tuple[]"
        }
      ],
      "stateMutability": "view",
      "type": "function"
    },
    {
      "inputs": [],
      "name": "owner",
      "outputs": [
        {
          "internalType": "address",
          "name": "",
          "type": "address"
        }
      ],
      "stateMutability": "view",
      "type": "function"
    },
    {
      "inputs": [
        {
          "internalType": "enum NitroLegacyInventory.ClassId",
          "name": "classId",
          "type": "uint8"
        },
        {
          "internalType": "uint8",
          "name": "slot",
          "type": "uint8"
        },
        {
          "internalType": "uint256",
          "name": "itemId",
          "type": "uint256"
        }
      ],
      "name": "setInventorySlot",
      "outputs": [],
      "stateMutability": "nonpayable",
      "type": "function"
    },
    {
      "inputs": [
        {
          "internalType": "enum NitroLegacyInventory.ClassId",
          "name": "classId",
          "type": "uint8"
        },
        {
          "internalType": "uint8",
          "name": "slot",
          "type": "uint8"
        }
      ],
      "name": "slotItemId",
      "outputs": [
        {
          "internalType": "uint256",
          "name": "",
          "type": "uint256"
        }
      ],
      "stateMutability": "view",
      "type": "function"
    },
    {
      "inputs": [
        {
          "internalType": "address",
          "name": "newOwner",
          "type": "address"
        }
      ],
      "name": "transferOwnership",
      "outputs": [],
      "stateMutability": "nonpayable",
      "type": "function"
    },
    {
      "inputs": [
        {
          "internalType": "uint256",
          "name": "itemId",
          "type": "uint256"
        },
        {
          "internalType": "string",
          "name": "name_",
          "type": "string"
        },
        {
          "internalType": "string",
          "name": "icon_",
          "type": "string"
        },
        {
          "internalType": "string",
          "name": "description_",
          "type": "string"
        },
        {
          "internalType": "enum NitroLegacyInventory.Rarity",
          "name": "rarity_",
          "type": "uint8"
        },
        {
          "internalType": "uint8",
          "name": "ownerCode_",
          "type": "uint8"
        },
        {
          "internalType": "bool",
          "name": "active_",
          "type": "bool"
        }
      ],
      "name": "updateItem",
      "outputs": [],
      "stateMutability": "nonpayable",
      "type": "function"
    }
  ],
  "bytecode": "0x60806040526001805534801561001457600080fd5b50600080546001600160a01b0319163390811782556040519091907f8be0079c531659141344cd1fd0a4f28419497f9722a3daafe3b4186f6b6457e0908290a3611d01806100636000396000f3fe608060405234801561001057600080fd5b50600436106100a95760003560e01c806385a168881161007157806385a16888146101315780638da5cb5b14610151578063e2a680f31461016c578063f2fde38b1461017f578063f63c518414610192578063fa9adb77146101a557600080fd5b8063012eec4a146100ae5780633129e773146100d4578063355eefc8146100f45780634390382114610109578063472698371461011e575b600080fd5b6100c16100bc366004611561565b6101c5565b6040519081526020015b60405180910390f35b6100e76100e2366004611596565b6102a4565b6040516100cb91906116b8565b6100fc61050c565b6040516100cb91906116d2565b61011c610117366004611561565b6107ef565b005b61011c61012c366004611736565b610927565b61014461013f366004611774565b610e37565b6040516100cb9190611791565b6000546040516001600160a01b0390911681526020016100cb565b6100c161017a366004611838565b610fee565b61011c61018d3660046118f4565b6111c8565b61011c6101a036600461191d565b611293565b6101b86101b3366004611774565b611442565b6040516100cb91906119fc565b6000600560008460038111156101dd576101dd6115f5565b60038111156101ee576101ee6115f5565b81526020808201929092526040908101600090812060ff8087168352935220541661024f5760405162461bcd60e51b815260206004820152600c60248201526b29b637ba103ab735b737bbb760a11b60448201526064015b60405180910390fd5b60046000846003811115610265576102656115f5565b6003811115610276576102766115f5565b815260200190815260200160002060008360ff1660ff16815260200190815260200160002054905092915050565b6102ac6114ed565b6000600260008481526020019081526020016000206040518060e0016040529081600082015481526020016001820180546102e690611a43565b80601f016020809104026020016040519081016040528092919081815260200182805461031290611a43565b801561035f5780601f106103345761010080835404028352916020019161035f565b820191906000526020600020905b81548152906001019060200180831161034257829003601f168201915b5050505050815260200160028201805461037890611a43565b80601f01602080910402602001604051908101604052809291908181526020018280546103a490611a43565b80156103f15780601f106103c6576101008083540402835291602001916103f1565b820191906000526020600020905b8154815290600101906020018083116103d457829003601f168201915b5050505050815260200160038201805461040a90611a43565b80601f016020809104026020016040519081016040528092919081815260200182805461043690611a43565b80156104835780601f1061045857610100808354040283529160200191610483565b820191906000526020600020905b81548152906001019060200180831161046657829003601f168201915b5050509183525050600482015460209091019060ff1660038111156104aa576104aa6115f5565b60038111156104bb576104bb6115f5565b81526004919091015460ff6101008204811660208401526201000090910416151560409091015280519091506000036105065760405162461bcd60e51b815260040161024690611a7d565b92915050565b6003546060908067ffffffffffffffff81111561052b5761052b611aa3565b60405190808252806020026020018201604052801561056457816020015b6105516114ed565b8152602001906001900390816105495790505b50915060005b818110156107ea57600260006003838154811061058957610589611ab9565b906000526020600020015481526020019081526020016000206040518060e0016040529081600082015481526020016001820180546105c790611a43565b80601f01602080910402602001604051908101604052809291908181526020018280546105f390611a43565b80156106405780601f1061061557610100808354040283529160200191610640565b820191906000526020600020905b81548152906001019060200180831161062357829003601f168201915b5050505050815260200160028201805461065990611a43565b80601f016020809104026020016040519081016040528092919081815260200182805461068590611a43565b80156106d25780601f106106a7576101008083540402835291602001916106d2565b820191906000526020600020905b8154815290600101906020018083116106b557829003601f168201915b505050505081526020016003820180546106eb90611a43565b80601f016020809104026020016040519081016040528092919081815260200182805461071790611a43565b80156107645780601f1061073957610100808354040283529160200191610764565b820191906000526020600020905b81548152906001019060200180831161074757829003601f168201915b5050509183525050600482015460209091019060ff16600381111561078b5761078b6115f5565b600381111561079c5761079c6115f5565b81526004919091015460ff6101008204811660208401526201000090910416151560409091015283518490839081106107d7576107d7611ab9565b602090810291909101015260010161056a565b505090565b6000546001600160a01b031633146108195760405162461bcd60e51b815260040161024690611acf565b6005600083600381111561082f5761082f6115f5565b6003811115610840576108406115f5565b81526020808201929092526040908101600090812060ff8086168352935220541661089c5760405162461bcd60e51b815260206004820152600c60248201526b29b637ba103ab735b737bbb760a11b6044820152606401610246565b6000600460008460038111156108b4576108b46115f5565b60038111156108c5576108c56115f5565b81526020808201929092526040908101600090812060ff8616808352935220919091558260038111156108fa576108fa6115f5565b6040517fc5a151c56dc45398d3f39b4711f3ac50496d10e569c714a5f3dd90274f19c70f90600090a35050565b6000546001600160a01b031633146109515760405162461bcd60e51b815260040161024690611acf565b60008260ff16116109975760405162461bcd60e51b815260206004820152601060248201526f0536c6f74206d757374206265203e20360841b6044820152606401610246565b8015610c3a576000600260008381526020019081526020016000206040518060e0016040529081600082015481526020016001820180546109d790611a43565b80601f0160208091040260200160405190810160405280929190818152602001828054610a0390611a43565b8015610a505780601f10610a2557610100808354040283529160200191610a50565b820191906000526020600020905b815481529060010190602001808311610a3357829003601f168201915b50505050508152602001600282018054610a6990611a43565b80601f0160208091040260200160405190810160405280929190818152602001828054610a9590611a43565b8015610ae25780601f10610ab757610100808354040283529160200191610ae2565b820191906000526020600020905b815481529060010190602001808311610ac557829003601f168201915b50505050508152602001600382018054610afb90611a43565b80601f0160208091040260200160405190810160405280929190818152602001828054610b2790611a43565b8015610b745780601f10610b4957610100808354040283529160200191610b74565b820191906000526020600020905b815481529060010190602001808311610b5757829003601f168201915b5050509183525050600482015460209091019060ff166003811115610b9b57610b9b6115f5565b6003811115610bac57610bac6115f5565b81526004919091015460ff610100820481166020840152620100009091041615156040909101528051909150600003610bf75760405162461bcd60e51b815260040161024690611a7d565b8060c00151610c385760405162461bcd60e51b815260206004820152600d60248201526c4974656d20696e61637469766560981b6044820152606401610246565b505b60056000846003811115610c5057610c506115f5565b6003811115610c6157610c616115f5565b81526020808201929092526040908101600090812060ff80871683529352205416610d4b57600160056000856003811115610c9e57610c9e6115f5565b6003811115610caf57610caf6115f5565b81526020808201929092526040908101600090812060ff871682529092528120805460ff191692151592909217909155600690846003811115610cf457610cf46115f5565b6003811115610d0557610d056115f5565b81526020808201929092526040016000908120805460018101825590825290829020918104909101805460ff808616601f9094166101000a938402930219169190911790555b8060046000856003811115610d6257610d626115f5565b6003811115610d7357610d736115f5565b815260200190815260200160002060008460ff1660ff1681526020019081526020016000208190555080600003610de8578160ff16836003811115610dba57610dba6115f5565b6040517fc5a151c56dc45398d3f39b4711f3ac50496d10e569c714a5f3dd90274f19c70f90600090a3505050565b8160ff16836003811115610dfe57610dfe6115f5565b6040518381527f8548afce0d13a170aec713f0f7c03449cc48a2a9de7a75f26b3d5ae070e782759060200160405180910390a35b505050565b6060600060066000846003811115610e5157610e516115f5565b6003811115610e6257610e626115f5565b815260208101919091526040016000205490508067ffffffffffffffff811115610e8e57610e8e611aa3565b604051908082528060200260200182016040528015610ed957816020015b6040805160608101825260008082526020808301829052928201528252600019909201910181610eac5790505b50915060005b81811015610fe757600060066000866003811115610eff57610eff6115f5565b6003811115610f1057610f106115f5565b81526020019081526020016000208281548110610f2f57610f2f611ab9565b60009182526020808320908204015460ff601f9092166101000a9004169150600481876003811115610f6357610f636115f5565b6003811115610f7457610f746115f5565b815260200190815260200160002060008360ff1660ff16815260200190815260200160002054905060405180606001604052808360ff16815260200182815260200182600014151515815250858481518110610fd257610fd2611ab9565b60209081029190910101525050600101610edf565b5050919050565b600080546001600160a01b031633146110195760405162461bcd60e51b815260040161024690611acf565b876110565760405162461bcd60e51b815260206004820152600d60248201526c13985b59481c995c5d5a5c9959609a1b6044820152606401610246565b60048260ff1611156110a45760405162461bcd60e51b81526020600482015260176024820152764f776e657220636f6465206f7574206f662072616e676560481b6044820152606401610246565b600180549060006110b483611af7565b909155506000818152600260205260409020818155909150600181016110db8a8c83611b6e565b50600281016110eb888a83611b6e565b50600381016110fb868883611b6e565b5060048101805485919060ff1916600183600381111561111d5761111d6115f5565b021790555060048101805462ff00001960ff8616610100021662ffff00199091161762010000179055600380546001810182556000919091527fc2575a0e9e593c00f959f8c92f12db2869c3395a3b0502d05e2516446f71f85b0182905560405182907f03a6881626db625e5751d54dde3ffcc9d651abf0387516d79774e0128690d841906111b3908d908d9088908a90611c58565b60405180910390a25098975050505050505050565b6000546001600160a01b031633146111f25760405162461bcd60e51b815260040161024690611acf565b6001600160a01b0381166112385760405162461bcd60e51b815260206004820152600d60248201526c24b73b30b634b21037bbb732b960991b6044820152606401610246565b600080546040516001600160a01b03808516939216917f8be0079c531659141344cd1fd0a4f28419497f9722a3daafe3b4186f6b6457e091a3600080546001600160a01b0319166001600160a01b0392909216919091179055565b6000546001600160a01b031633146112bd5760405162461bcd60e51b815260040161024690611acf565b60008a815260026020526040812080549091036112ec5760405162461bcd60e51b815260040161024690611a7d565b886113295760405162461bcd60e51b815260206004820152600d60248201526c13985b59481c995c5d5a5c9959609a1b6044820152606401610246565b60048360ff1611156113775760405162461bcd60e51b81526020600482015260176024820152764f776e657220636f6465206f7574206f662072616e676560481b6044820152606401610246565b600181016113868a8c83611b6e565b5060028101611396888a83611b6e565b50600381016113a6868883611b6e565b5060048101805485919060ff191660018360038111156113c8576113c86115f5565b021790555060048101805462ffff00191661010060ff86160262ff000019161762010000841515021790556040518b907fcf3ab8693137347164e1a6ba955cf5bee5ffe2f26a04fb8b37533fd740ce0a989061142d908d908d9088908a908990611c8d565b60405180910390a25050505050505050505050565b60606006600083600381111561145a5761145a6115f5565b600381111561146b5761146b6115f5565b81526020019081526020016000208054806020026020016040519081016040528092919081815260200182805480156114e157602002820191906000526020600020906000905b825461010083900a900460ff168152602060019283018181049485019490930390920291018084116114b25790505b50505050509050919050565b6040518060e001604052806000815260200160608152602001606081526020016060815260200160006003811115611527576115276115f5565b815260006020820181905260409091015290565b6004811061154857600080fd5b50565b803560ff8116811461155c57600080fd5b919050565b6000806040838503121561157457600080fd5b823561157f8161153b565b915061158d6020840161154b565b90509250929050565b6000602082840312156115a857600080fd5b5035919050565b6000815180845260005b818110156115d5576020818501810151868301820152016115b9565b506000602082860101526020601f19601f83011685010191505092915050565b634e487b7160e01b600052602160045260246000fd5b6004811061162957634e487b7160e01b600052602160045260246000fd5b9052565b805182526000602082015160e0602085015261164c60e08501826115af565b90506040830151848203604086015261166582826115af565b9150506060830151848203606086015261167f82826115af565b9150506080830151611694608086018261160b565b5060ff60a08401511660a085015260c0830151151560c08501528091505092915050565b6020815260006116cb602083018461162d565b9392505050565b600060208083016020845280855180835260408601915060408160051b87010192506020870160005b8281101561172957603f1988860301845261171785835161162d565b945092850192908501906001016116fb565b5092979650505050505050565b60008060006060848603121561174b57600080fd5b83356117568161153b565b92506117646020850161154b565b9150604084013590509250925092565b60006020828403121561178657600080fd5b81356116cb8161153b565b602080825282518282018190526000919060409081850190868401855b828110156117e2578151805160ff1685528681015187860152850151151585850152606090930192908501906001016117ae565b5091979650505050505050565b60008083601f84011261180157600080fd5b50813567ffffffffffffffff81111561181957600080fd5b60208301915083602082850101111561183157600080fd5b9250929050565b60008060008060008060008060a0898b03121561185457600080fd5b883567ffffffffffffffff8082111561186c57600080fd5b6118788c838d016117ef565b909a50985060208b013591508082111561189157600080fd5b61189d8c838d016117ef565b909850965060408b01359150808211156118b657600080fd5b506118c38b828c016117ef565b90955093505060608901356118d78161153b565b91506118e560808a0161154b565b90509295985092959890939650565b60006020828403121561190657600080fd5b81356001600160a01b03811681146116cb57600080fd5b60008060008060008060008060008060e08b8d03121561193c57600080fd5b8a35995060208b013567ffffffffffffffff8082111561195b57600080fd5b6119678e838f016117ef565b909b50995060408d013591508082111561198057600080fd5b61198c8e838f016117ef565b909950975060608d01359150808211156119a557600080fd5b506119b28d828e016117ef565b90965094505060808b01356119c68161153b565b92506119d460a08c0161154b565b915060c08b013580151581146119e957600080fd5b809150509295989b9194979a5092959850565b6020808252825182820181905260009190848201906040850190845b81811015611a3757835160ff1683529284019291840191600101611a18565b50909695505050505050565b600181811c90821680611a5757607f821691505b602082108103611a7757634e487b7160e01b600052602260045260246000fd5b50919050565b6020808252600c908201526b556e6b6e6f776e206974656d60a01b604082015260600190565b634e487b7160e01b600052604160045260246000fd5b634e487b7160e01b600052603260045260246000fd5b6020808252600e908201526d139bdd08185d5d1a1bdc9a5e995960921b604082015260600190565b600060018201611b1757634e487b7160e01b600052601160045260246000fd5b5060010190565b601f821115610e32576000816000526020600020601f850160051c81016020861015611b475750805b601f850160051c820191505b81811015611b6657828155600101611b53565b505050505050565b67ffffffffffffffff831115611b8657611b86611aa3565b611b9a83611b948354611a43565b83611b1e565b6000601f841160018114611bce5760008515611bb65750838201355b600019600387901b1c1916600186901b178355611c28565b600083815260209020601f19861690835b82811015611bff5786850135825560209485019460019092019101611bdf565b5086821015611c1c5760001960f88860031b161c19848701351681555b505060018560011b0183555b5050505050565b81835281816020850137506000828201602090810191909152601f909101601f19169091010190565b606081526000611c6c606083018688611c2f565b905060ff84166020830152611c84604083018461160b565b95945050505050565b608081526000611ca1608083018789611c2f565b905060ff85166020830152611cb9604083018561160b565b8215156060830152969550505050505056fea26469706673582212201525f4046e7eeb007eebb019f7cbfb3c8d70c4fbf8b00099a29c118c733b5ef564736f6c63430008180033",
  "linkReferences": {},
  "deployedLinkReferences": {}
}